{
	"contracts/Evaluator.sol": {
		"Evaluator": {
			"abi": [
				{
					"inputs": [],
					"stateMutability": "nonpayable",
					"type": "constructor"
				},
				{
					"anonymous": false,
					"inputs": [
						{
							"indexed": false,
							"internalType": "address",
							"name": "erc20Address",
							"type": "address"
						}
					],
					"name": "constructedCorrectly",
					"type": "event"
				},
				{
					"anonymous": false,
					"inputs": [
						{
							"indexed": false,
							"internalType": "string",
							"name": "ticker",
							"type": "string"
						},
						{
							"indexed": false,
							"internalType": "uint256",
							"name": "supply",
							"type": "uint256"
						}
					],
					"name": "newRandomTickerAndSupply",
					"type": "event"
				},
				{
					"stateMutability": "payable",
					"type": "fallback"
				},
				{
					"inputs": [
						{
							"internalType": "address",
							"name": "",
							"type": "address"
						}
					],
					"name": "assignedSupply",
					"outputs": [
						{
							"internalType": "uint256",
							"name": "",
							"type": "uint256"
						}
					],
					"stateMutability": "view",
					"type": "function"
				},
				{
					"inputs": [
						{
							"internalType": "address",
							"name": "",
							"type": "address"
						}
					],
					"name": "assignedTicker",
					"outputs": [
						{
							"internalType": "string",
							"name": "",
							"type": "string"
						}
					],
					"stateMutability": "view",
					"type": "function"
				},
				{
					"inputs": [
						{
							"internalType": "bytes32",
							"name": "_bytes32",
							"type": "bytes32"
						}
					],
					"name": "bytes32ToString",
					"outputs": [
						{
							"internalType": "string",
							"name": "",
							"type": "string"
						}
					],
					"stateMutability": "pure",
					"type": "function"
				},
				{
					"inputs": [],
					"name": "ex10_allInOne",
					"outputs": [],
					"stateMutability": "nonpayable",
					"type": "function"
				},
				{
					"inputs": [],
					"name": "ex1_getTickerAndSupply",
					"outputs": [],
					"stateMutability": "nonpayable",
					"type": "function"
				},
				{
					"inputs": [],
					"name": "ex2_testErc20TickerAndSupply",
					"outputs": [],
					"stateMutability": "nonpayable",
					"type": "function"
				},
				{
					"inputs": [],
					"name": "ex3_testGetToken",
					"outputs": [],
					"stateMutability": "nonpayable",
					"type": "function"
				},
				{
					"inputs": [],
					"name": "ex4_testBuyToken",
					"outputs": [],
					"stateMutability": "nonpayable",
					"type": "function"
				},
				{
					"inputs": [],
					"name": "ex5_testDenyListing",
					"outputs": [],
					"stateMutability": "nonpayable",
					"type": "function"
				},
				{
					"inputs": [],
					"name": "ex6_testAllowListing",
					"outputs": [],
					"stateMutability": "nonpayable",
					"type": "function"
				},
				{
					"inputs": [],
					"name": "ex7_testDenyListing",
					"outputs": [],
					"stateMutability": "nonpayable",
					"type": "function"
				},
				{
					"inputs": [
						{
							"internalType": "address",
							"name": "",
							"type": "address"
						}
					],
					"name": "ex8Tier1AmountBought",
					"outputs": [
						{
							"internalType": "uint256",
							"name": "",
							"type": "uint256"
						}
					],
					"stateMutability": "view",
					"type": "function"
				},
				{
					"inputs": [],
					"name": "ex8_testTier1Listing",
					"outputs": [],
					"stateMutability": "nonpayable",
					"type": "function"
				},
				{
					"inputs": [],
					"name": "ex9_testTier2Listing",
					"outputs": [],
					"stateMutability": "nonpayable",
					"type": "function"
				},
				{
					"inputs": [
						{
							"internalType": "address",
							"name": "",
							"type": "address"
						},
						{
							"internalType": "uint256",
							"name": "",
							"type": "uint256"
						}
					],
					"name": "exerciceProgression",
					"outputs": [
						{
							"internalType": "bool",
							"name": "",
							"type": "bool"
						}
					],
					"stateMutability": "view",
					"type": "function"
				},
				{
					"inputs": [
						{
							"internalType": "address",
							"name": "",
							"type": "address"
						}
					],
					"name": "hasBeenPaired",
					"outputs": [
						{
							"internalType": "bool",
							"name": "",
							"type": "bool"
						}
					],
					"stateMutability": "view",
					"type": "function"
				},
				{
					"inputs": [],
					"name": "nextValueStoreRank",
					"outputs": [
						{
							"internalType": "uint256",
							"name": "",
							"type": "uint256"
						}
					],
					"stateMutability": "view",
					"type": "function"
				},
				{
					"inputs": [
						{
							"internalType": "address",
							"name": "studentAddres",
							"type": "address"
						}
					],
					"name": "readSupply",
					"outputs": [
						{
							"internalType": "uint256",
							"name": "",
							"type": "uint256"
						}
					],
					"stateMutability": "view",
					"type": "function"
				},
				{
					"inputs": [
						{
							"internalType": "address",
							"name": "studentAddres",
							"type": "address"
						}
					],
					"name": "readTicker",
					"outputs": [
						{
							"internalType": "string",
							"name": "",
							"type": "string"
						}
					],
					"stateMutability": "view",
					"type": "function"
				},
				{
					"inputs": [
						{
							"internalType": "uint256[20]",
							"name": "_randomSupplies",
							"type": "uint256[20]"
						},
						{
							"internalType": "string[20]",
							"name": "_randomTickers",
							"type": "string[20]"
						}
					],
					"name": "setRandomTickersAndSupply",
					"outputs": [],
					"stateMutability": "nonpayable",
					"type": "function"
				},
				{
					"inputs": [
						{
							"internalType": "address",
							"name": "",
							"type": "address"
						}
					],
					"name": "studentErc20",
					"outputs": [
						{
							"internalType": "contract IExerciceSolution",
							"name": "",
							"type": "address"
						}
					],
					"stateMutability": "view",
					"type": "function"
				},
				{
					"inputs": [
						{
							"internalType": "contract IExerciceSolution",
							"name": "studentExercice",
							"type": "address"
						}
					],
					"name": "submitExercice",
					"outputs": [],
					"stateMutability": "nonpayable",
					"type": "function"
				},
				{
					"inputs": [
						{
							"internalType": "address",
							"name": "",
							"type": "address"
						}
					],
					"name": "teachers",
					"outputs": [
						{
							"internalType": "bool",
							"name": "",
							"type": "bool"
						}
					],
					"stateMutability": "view",
					"type": "function"
				},
				{
					"stateMutability": "payable",
					"type": "receive"
				}
			],
			"devdoc": {
				"kind": "dev",
				"methods": {},
				"version": 1
			},
			"evm": {
				"assembly": "    /* \"contracts/Evaluator.sol\":494:2497  contract Evaluator ... */\n  mstore(0x40, 0x80)\n    /* \"contracts/Evaluator.sol\":1063:1096  constructor() ... */\n  callvalue\n  dup1\n  iszero\n  tag_1\n  jumpi\n  0x00\n  dup1\n  revert\ntag_1:\n  pop\n    /* \"contracts/Evaluator.sol\":494:2497  contract Evaluator ... */\n  dataSize(sub_0)\n  dup1\n  dataOffset(sub_0)\n  0x00\n  codecopy\n  0x00\n  return\nstop\n\nsub_0: assembly {\n        /* \"contracts/Evaluator.sol\":494:2497  contract Evaluator ... */\n      mstore(0x40, 0x80)\n      jumpi(tag_1, lt(calldatasize, 0x04))\n      shr(0xe0, calldataload(0x00))\n      dup1\n      0xa6c611d9\n      gt\n      tag_26\n      jumpi\n      dup1\n      0xe22b5dcf\n      gt\n      tag_27\n      jumpi\n      dup1\n      0xe22b5dcf\n      eq\n      tag_20\n      jumpi\n      dup1\n      0xe22ebfd6\n      eq\n      tag_21\n      jumpi\n      dup1\n      0xe8b4cb56\n      eq\n      tag_22\n      jumpi\n      dup1\n      0xec65b16e\n      eq\n      tag_23\n      jumpi\n      dup1\n      0xf0a47f78\n      eq\n      tag_24\n      jumpi\n      dup1\n      0xf4fdbb88\n      eq\n      tag_25\n      jumpi\n      jump(tag_2)\n    tag_27:\n      dup1\n      0xa6c611d9\n      eq\n      tag_14\n      jumpi\n      dup1\n      0xafda5dc5\n      eq\n      tag_15\n      jumpi\n      dup1\n      0xb32b559f\n      eq\n      tag_16\n      jumpi\n      dup1\n      0xccd64d7d\n      eq\n      tag_17\n      jumpi\n      dup1\n      0xd1a2e76e\n      eq\n      tag_18\n      jumpi\n      dup1\n      0xdf70111f\n      eq\n      tag_19\n      jumpi\n      jump(tag_2)\n    tag_26:\n      dup1\n      0x39119dce\n      gt\n      tag_28\n      jumpi\n      dup1\n      0x39119dce\n      eq\n      tag_8\n      jumpi\n      dup1\n      0x3bc40956\n      eq\n      tag_9\n      jumpi\n      dup1\n      0x7db60caf\n      eq\n      tag_10\n      jumpi\n      dup1\n      0x9201de55\n      eq\n      tag_11\n      jumpi\n      dup1\n      0x98f02097\n      eq\n      tag_12\n      jumpi\n      dup1\n      0x9f91f516\n      eq\n      tag_13\n      jumpi\n      jump(tag_2)\n    tag_28:\n      dup1\n      0xa3491a\n      eq\n      tag_3\n      jumpi\n      dup1\n      0x0af78edc\n      eq\n      tag_4\n      jumpi\n      dup1\n      0x16f4b99f\n      eq\n      tag_5\n      jumpi\n      dup1\n      0x2236d353\n      eq\n      tag_6\n      jumpi\n      dup1\n      0x2e64c500\n      eq\n      tag_7\n      jumpi\n      jump(tag_2)\n    tag_1:\n      jumpi(tag_2, calldatasize)\n      stop\n    tag_2:\n      stop\n        /* \"contracts/Evaluator.sol\":597:645  mapping(address => string) public assignedTicker */\n    tag_3:\n      callvalue\n      dup1\n      iszero\n      tag_33\n      jumpi\n      0x00\n      dup1\n      revert\n    tag_33:\n      pop\n      tag_34\n      0x04\n      dup1\n      calldatasize\n      sub\n      dup2\n      add\n      swap1\n      tag_35\n      swap2\n      swap1\n      tag_36\n      jump\t// in\n    tag_35:\n      tag_37\n      jump\t// in\n    tag_34:\n      mload(0x40)\n      tag_38\n      swap2\n      swap1\n      tag_39\n      jump\t// in\n    tag_38:\n      mload(0x40)\n      dup1\n      swap2\n      sub\n      swap1\n      return\n        /* \"contracts/Evaluator.sol\":1426:1474  function ex6_testAllowListing()... */\n    tag_4:\n      callvalue\n      dup1\n      iszero\n      tag_40\n      jumpi\n      0x00\n      dup1\n      revert\n    tag_40:\n      pop\n      tag_41\n      tag_42\n      jump\t// in\n    tag_41:\n      stop\n        /* \"contracts/Evaluator.sol\":1527:1575  function ex8_testTier1Listing()... */\n    tag_5:\n      callvalue\n      dup1\n      iszero\n      tag_43\n      jumpi\n      0x00\n      dup1\n      revert\n    tag_43:\n      pop\n      tag_44\n      tag_45\n      jump\t// in\n    tag_44:\n      stop\n        /* \"contracts/Evaluator.sol\":1761:1833  function submitExercice(IExerciceSolution studentExercice)... */\n    tag_6:\n      callvalue\n      dup1\n      iszero\n      tag_46\n      jumpi\n      0x00\n      dup1\n      revert\n    tag_46:\n      pop\n      tag_47\n      0x04\n      dup1\n      calldatasize\n      sub\n      dup2\n      add\n      swap1\n      tag_48\n      swap2\n      swap1\n      tag_49\n      jump\t// in\n    tag_48:\n      tag_50\n      jump\t// in\n    tag_47:\n      stop\n        /* \"contracts/Evaluator.sol\":702:773  mapping(address => mapping(uint256 => bool)) public exerciceProgression */\n    tag_7:\n      callvalue\n      dup1\n      iszero\n      tag_51\n      jumpi\n      0x00\n      dup1\n      revert\n    tag_51:\n      pop\n      tag_52\n      0x04\n      dup1\n      calldatasize\n      sub\n      dup2\n      add\n      swap1\n      tag_53\n      swap2\n      swap1\n      tag_54\n      jump\t// in\n    tag_53:\n      tag_55\n      jump\t// in\n    tag_52:\n      mload(0x40)\n      tag_56\n      swap2\n      swap1\n      tag_57\n      jump\t// in\n    tag_56:\n      mload(0x40)\n      dup1\n      swap2\n      sub\n      swap1\n      return\n        /* \"contracts/Evaluator.sol\":562:592  uint public nextValueStoreRank */\n    tag_8:\n      callvalue\n      dup1\n      iszero\n      tag_58\n      jumpi\n      0x00\n      dup1\n      revert\n    tag_58:\n      pop\n      tag_59\n      tag_60\n      jump\t// in\n    tag_59:\n      mload(0x40)\n      tag_61\n      swap2\n      swap1\n      tag_62\n      jump\t// in\n    tag_61:\n      mload(0x40)\n      dup1\n      swap2\n      sub\n      swap1\n      return\n        /* \"contracts/Evaluator.sol\":1284:1328  function ex3_testGetToken()... */\n    tag_9:\n      callvalue\n      dup1\n      iszero\n      tag_63\n      jumpi\n      0x00\n      dup1\n      revert\n    tag_63:\n      pop\n      tag_64\n      tag_65\n      jump\t// in\n    tag_64:\n      stop\n        /* \"contracts/Evaluator.sol\":649:698  mapping(address => uint256) public assignedSupply */\n    tag_10:\n      callvalue\n      dup1\n      iszero\n      tag_66\n      jumpi\n      0x00\n      dup1\n      revert\n    tag_66:\n      pop\n      tag_67\n      0x04\n      dup1\n      calldatasize\n      sub\n      dup2\n      add\n      swap1\n      tag_68\n      swap2\n      swap1\n      tag_36\n      jump\t// in\n    tag_68:\n      tag_69\n      jump\t// in\n    tag_67:\n      mload(0x40)\n      tag_70\n      swap2\n      swap1\n      tag_62\n      jump\t// in\n    tag_70:\n      mload(0x40)\n      dup1\n      swap2\n      sub\n      swap1\n      return\n        /* \"contracts/Evaluator.sol\":1958:2069  function bytes32ToString(bytes32 _bytes32) ... */\n    tag_11:\n      callvalue\n      dup1\n      iszero\n      tag_71\n      jumpi\n      0x00\n      dup1\n      revert\n    tag_71:\n      pop\n      tag_72\n      0x04\n      dup1\n      calldatasize\n      sub\n      dup2\n      add\n      swap1\n      tag_73\n      swap2\n      swap1\n      tag_74\n      jump\t// in\n    tag_73:\n      tag_75\n      jump\t// in\n    tag_72:\n      mload(0x40)\n      tag_76\n      swap2\n      swap1\n      tag_39\n      jump\t// in\n    tag_76:\n      mload(0x40)\n      dup1\n      swap2\n      sub\n      swap1\n      return\n        /* \"contracts/Evaluator.sol\":1171:1221  function ex1_getTickerAndSupply()... */\n    tag_12:\n      callvalue\n      dup1\n      iszero\n      tag_77\n      jumpi\n      0x00\n      dup1\n      revert\n    tag_77:\n      pop\n      tag_78\n      tag_79\n      jump\t// in\n    tag_78:\n      stop\n        /* \"contracts/Evaluator.sol\":2262:2354  function readSupply(address studentAddres)... */\n    tag_13:\n      callvalue\n      dup1\n      iszero\n      tag_80\n      jumpi\n      0x00\n      dup1\n      revert\n    tag_80:\n      pop\n      tag_81\n      0x04\n      dup1\n      calldatasize\n      sub\n      dup2\n      add\n      swap1\n      tag_82\n      swap2\n      swap1\n      tag_36\n      jump\t// in\n    tag_82:\n      tag_83\n      jump\t// in\n    tag_81:\n      mload(0x40)\n      tag_84\n      swap2\n      swap1\n      tag_62\n      jump\t// in\n    tag_84:\n      mload(0x40)\n      dup1\n      swap2\n      sub\n      swap1\n      return\n        /* \"contracts/Evaluator.sol\":1477:1524  function ex7_testDenyListing()... */\n    tag_14:\n      callvalue\n      dup1\n      iszero\n      tag_85\n      jumpi\n      0x00\n      dup1\n      revert\n    tag_85:\n      pop\n      tag_86\n      tag_87\n      jump\t// in\n    tag_86:\n      stop\n        /* \"contracts/Evaluator.sol\":838:893  mapping(address => uint256) public ex8Tier1AmountBought */\n    tag_15:\n      callvalue\n      dup1\n      iszero\n      tag_88\n      jumpi\n      0x00\n      dup1\n      revert\n    tag_88:\n      pop\n      tag_89\n      0x04\n      dup1\n      calldatasize\n      sub\n      dup2\n      add\n      swap1\n      tag_90\n      swap2\n      swap1\n      tag_36\n      jump\t// in\n    tag_90:\n      tag_91\n      jump\t// in\n    tag_89:\n      mload(0x40)\n      tag_92\n      swap2\n      swap1\n      tag_62\n      jump\t// in\n    tag_92:\n      mload(0x40)\n      dup1\n      swap2\n      sub\n      swap1\n      return\n        /* \"contracts/Evaluator.sol\":1331:1373  function ex4_testBuyToken()... */\n    tag_16:\n      callvalue\n      dup1\n      iszero\n      tag_93\n      jumpi\n      0x00\n      dup1\n      revert\n    tag_93:\n      pop\n      tag_94\n      tag_95\n      jump\t// in\n    tag_94:\n      stop\n        /* \"contracts/Evaluator.sol\":1578:1626  function ex9_testTier2Listing()... */\n    tag_17:\n      callvalue\n      dup1\n      iszero\n      tag_96\n      jumpi\n      0x00\n      dup1\n      revert\n    tag_96:\n      pop\n      tag_97\n      tag_98\n      jump\t// in\n    tag_97:\n      stop\n        /* \"contracts/Evaluator.sol\":2357:2491  function setRandomTickersAndSupply(uint256[20] memory _randomSupplies, string[20] memory _randomTickers) ... */\n    tag_18:\n      callvalue\n      dup1\n      iszero\n      tag_99\n      jumpi\n      0x00\n      dup1\n      revert\n    tag_99:\n      pop\n      tag_100\n      0x04\n      dup1\n      calldatasize\n      sub\n      dup2\n      add\n      swap1\n      tag_101\n      swap2\n      swap1\n      tag_102\n      jump\t// in\n    tag_101:\n      tag_103\n      jump\t// in\n    tag_100:\n      stop\n        /* \"contracts/Evaluator.sol\":1629:1673  function ex10_allInOne() ... */\n    tag_19:\n      callvalue\n      dup1\n      iszero\n      tag_104\n      jumpi\n      0x00\n      dup1\n      revert\n    tag_104:\n      pop\n      tag_105\n      tag_106\n      jump\t// in\n    tag_105:\n      stop\n        /* \"contracts/Evaluator.sol\":2160:2259  function readTicker(address studentAddres)... */\n    tag_20:\n      callvalue\n      dup1\n      iszero\n      tag_107\n      jumpi\n      0x00\n      dup1\n      revert\n    tag_107:\n      pop\n      tag_108\n      0x04\n      dup1\n      calldatasize\n      sub\n      dup2\n      add\n      swap1\n      tag_109\n      swap2\n      swap1\n      tag_36\n      jump\t// in\n    tag_109:\n      tag_110\n      jump\t// in\n    tag_108:\n      mload(0x40)\n      tag_111\n      swap2\n      swap1\n      tag_39\n      jump\t// in\n    tag_111:\n      mload(0x40)\n      dup1\n      swap2\n      sub\n      swap1\n      return\n        /* \"contracts/Evaluator.sol\":777:834  mapping(address => IExerciceSolution) public studentErc20 */\n    tag_21:\n      callvalue\n      dup1\n      iszero\n      tag_112\n      jumpi\n      0x00\n      dup1\n      revert\n    tag_112:\n      pop\n      tag_113\n      0x04\n      dup1\n      calldatasize\n      sub\n      dup2\n      add\n      swap1\n      tag_114\n      swap2\n      swap1\n      tag_36\n      jump\t// in\n    tag_114:\n      tag_115\n      jump\t// in\n    tag_113:\n      mload(0x40)\n      tag_116\n      swap2\n      swap1\n      tag_117\n      jump\t// in\n    tag_116:\n      mload(0x40)\n      dup1\n      swap2\n      sub\n      swap1\n      return\n        /* \"contracts/Evaluator.sol\":1224:1281  function ex2_testErc20TickerAndSupply()... */\n    tag_22:\n      callvalue\n      dup1\n      iszero\n      tag_118\n      jumpi\n      0x00\n      dup1\n      revert\n    tag_118:\n      pop\n      tag_119\n      tag_120\n      jump\t// in\n    tag_119:\n      stop\n        /* \"contracts/Evaluator.sol\":1376:1423  function ex5_testDenyListing()... */\n    tag_23:\n      callvalue\n      dup1\n      iszero\n      tag_121\n      jumpi\n      0x00\n      dup1\n      revert\n    tag_121:\n      pop\n      tag_122\n      tag_123\n      jump\t// in\n    tag_122:\n      stop\n        /* \"contracts/Evaluator.sol\":518:558  mapping(address => bool) public teachers */\n    tag_24:\n      callvalue\n      dup1\n      iszero\n      tag_124\n      jumpi\n      0x00\n      dup1\n      revert\n    tag_124:\n      pop\n      tag_125\n      0x04\n      dup1\n      calldatasize\n      sub\n      dup2\n      add\n      swap1\n      tag_126\n      swap2\n      swap1\n      tag_36\n      jump\t// in\n    tag_126:\n      tag_127\n      jump\t// in\n    tag_125:\n      mload(0x40)\n      tag_128\n      swap2\n      swap1\n      tag_57\n      jump\t// in\n    tag_128:\n      mload(0x40)\n      dup1\n      swap2\n      sub\n      swap1\n      return\n        /* \"contracts/Evaluator.sol\":897:942  mapping(address => bool) public hasBeenPaired */\n    tag_25:\n      callvalue\n      dup1\n      iszero\n      tag_129\n      jumpi\n      0x00\n      dup1\n      revert\n    tag_129:\n      pop\n      tag_130\n      0x04\n      dup1\n      calldatasize\n      sub\n      dup2\n      add\n      swap1\n      tag_131\n      swap2\n      swap1\n      tag_36\n      jump\t// in\n    tag_131:\n      tag_132\n      jump\t// in\n    tag_130:\n      mload(0x40)\n      tag_133\n      swap2\n      swap1\n      tag_57\n      jump\t// in\n    tag_133:\n      mload(0x40)\n      dup1\n      swap2\n      sub\n      swap1\n      return\n        /* \"contracts/Evaluator.sol\":597:645  mapping(address => string) public assignedTicker */\n    tag_37:\n      mstore(0x20, 0x02)\n      dup1\n      0x00\n      mstore\n      keccak256(0x00, 0x40)\n      0x00\n      swap2\n      pop\n      swap1\n      pop\n      dup1\n      sload\n      tag_134\n      swap1\n      tag_135\n      jump\t// in\n    tag_134:\n      dup1\n      0x1f\n      add\n      0x20\n      dup1\n      swap2\n      div\n      mul\n      0x20\n      add\n      mload(0x40)\n      swap1\n      dup2\n      add\n      0x40\n      mstore\n      dup1\n      swap3\n      swap2\n      swap1\n      dup2\n      dup2\n      mstore\n      0x20\n      add\n      dup3\n      dup1\n      sload\n      tag_136\n      swap1\n      tag_135\n      jump\t// in\n    tag_136:\n      dup1\n      iszero\n      tag_137\n      jumpi\n      dup1\n      0x1f\n      lt\n      tag_138\n      jumpi\n      0x0100\n      dup1\n      dup4\n      sload\n      div\n      mul\n      dup4\n      mstore\n      swap2\n      0x20\n      add\n      swap2\n      jump(tag_137)\n    tag_138:\n      dup3\n      add\n      swap2\n      swap1\n      0x00\n      mstore\n      keccak256(0x00, 0x20)\n      swap1\n    tag_139:\n      dup2\n      sload\n      dup2\n      mstore\n      swap1\n      0x01\n      add\n      swap1\n      0x20\n      add\n      dup1\n      dup4\n      gt\n      tag_139\n      jumpi\n      dup3\n      swap1\n      sub\n      0x1f\n      and\n      dup3\n      add\n      swap2\n    tag_137:\n      pop\n      pop\n      pop\n      pop\n      pop\n      dup2\n      jump\t// out\n        /* \"contracts/Evaluator.sol\":1426:1474  function ex6_testAllowListing()... */\n    tag_42:\n      jump\t// out\n        /* \"contracts/Evaluator.sol\":1527:1575  function ex8_testTier1Listing()... */\n    tag_45:\n      jump\t// out\n        /* \"contracts/Evaluator.sol\":1761:1833  function submitExercice(IExerciceSolution studentExercice)... */\n    tag_50:\n      pop\n      jump\t// out\n        /* \"contracts/Evaluator.sol\":702:773  mapping(address => mapping(uint256 => bool)) public exerciceProgression */\n    tag_55:\n      mstore(0x20, 0x04)\n      dup2\n      0x00\n      mstore\n      mstore(0x20, keccak256(0x00, 0x40))\n      dup1\n      0x00\n      mstore\n      keccak256(0x00, 0x40)\n      0x00\n      swap2\n      pop\n      swap2\n      pop\n      swap1\n      sload\n      swap1\n      0x0100\n      exp\n      swap1\n      div\n      0xff\n      and\n      dup2\n      jump\t// out\n        /* \"contracts/Evaluator.sol\":562:592  uint public nextValueStoreRank */\n    tag_60:\n      sload(0x01)\n      dup2\n      jump\t// out\n        /* \"contracts/Evaluator.sol\":1284:1328  function ex3_testGetToken()... */\n    tag_65:\n      jump\t// out\n        /* \"contracts/Evaluator.sol\":649:698  mapping(address => uint256) public assignedSupply */\n    tag_69:\n      mstore(0x20, 0x03)\n      dup1\n      0x00\n      mstore\n      keccak256(0x00, 0x40)\n      0x00\n      swap2\n      pop\n      swap1\n      pop\n      sload\n      dup2\n      jump\t// out\n        /* \"contracts/Evaluator.sol\":1958:2069  function bytes32ToString(bytes32 _bytes32) ... */\n    tag_75:\n        /* \"contracts/Evaluator.sol\":2026:2039  string memory */\n      0x60\n        /* \"contracts/Evaluator.sol\":2053:2062  return \"\" */\n      mload(0x40)\n      dup1\n      0x20\n      add\n      0x40\n      mstore\n      dup1\n      0x00\n      dup2\n      mstore\n      pop\n      swap1\n      pop\n        /* \"contracts/Evaluator.sol\":1958:2069  function bytes32ToString(bytes32 _bytes32) ... */\n      swap2\n      swap1\n      pop\n      jump\t// out\n        /* \"contracts/Evaluator.sol\":1171:1221  function ex1_getTickerAndSupply()... */\n    tag_79:\n      jump\t// out\n        /* \"contracts/Evaluator.sol\":2262:2354  function readSupply(address studentAddres)... */\n    tag_83:\n        /* \"contracts/Evaluator.sol\":2328:2335  uint256 */\n      0x00\n        /* \"contracts/Evaluator.sol\":2262:2354  function readSupply(address studentAddres)... */\n      swap2\n      swap1\n      pop\n      jump\t// out\n        /* \"contracts/Evaluator.sol\":1477:1524  function ex7_testDenyListing()... */\n    tag_87:\n      jump\t// out\n        /* \"contracts/Evaluator.sol\":838:893  mapping(address => uint256) public ex8Tier1AmountBought */\n    tag_91:\n      mstore(0x20, 0x06)\n      dup1\n      0x00\n      mstore\n      keccak256(0x00, 0x40)\n      0x00\n      swap2\n      pop\n      swap1\n      pop\n      sload\n      dup2\n      jump\t// out\n        /* \"contracts/Evaluator.sol\":1331:1373  function ex4_testBuyToken()... */\n    tag_95:\n      jump\t// out\n        /* \"contracts/Evaluator.sol\":1578:1626  function ex9_testTier2Listing()... */\n    tag_98:\n      jump\t// out\n        /* \"contracts/Evaluator.sol\":2357:2491  function setRandomTickersAndSupply(uint256[20] memory _randomSupplies, string[20] memory _randomTickers) ... */\n    tag_103:\n      pop\n      pop\n      jump\t// out\n        /* \"contracts/Evaluator.sol\":1629:1673  function ex10_allInOne() ... */\n    tag_106:\n      jump\t// out\n        /* \"contracts/Evaluator.sol\":2160:2259  function readTicker(address studentAddres)... */\n    tag_110:\n        /* \"contracts/Evaluator.sol\":2226:2239  string memory */\n      0x60\n        /* \"contracts/Evaluator.sol\":2246:2255  return \"\" */\n      mload(0x40)\n      dup1\n      0x20\n      add\n      0x40\n      mstore\n      dup1\n      0x00\n      dup2\n      mstore\n      pop\n      swap1\n      pop\n        /* \"contracts/Evaluator.sol\":2160:2259  function readTicker(address studentAddres)... */\n      swap2\n      swap1\n      pop\n      jump\t// out\n        /* \"contracts/Evaluator.sol\":777:834  mapping(address => IExerciceSolution) public studentErc20 */\n    tag_115:\n      mstore(0x20, 0x05)\n      dup1\n      0x00\n      mstore\n      keccak256(0x00, 0x40)\n      0x00\n      swap2\n      pop\n      sload\n      swap1\n      0x0100\n      exp\n      swap1\n      div\n      0xffffffffffffffffffffffffffffffffffffffff\n      and\n      dup2\n      jump\t// out\n        /* \"contracts/Evaluator.sol\":1224:1281  function ex2_testErc20TickerAndSupply()... */\n    tag_120:\n      jump\t// out\n        /* \"contracts/Evaluator.sol\":1376:1423  function ex5_testDenyListing()... */\n    tag_123:\n      jump\t// out\n        /* \"contracts/Evaluator.sol\":518:558  mapping(address => bool) public teachers */\n    tag_127:\n      mstore(0x20, 0x00)\n      dup1\n      0x00\n      mstore\n      keccak256(0x00, 0x40)\n      0x00\n      swap2\n      pop\n      sload\n      swap1\n      0x0100\n      exp\n      swap1\n      div\n      0xff\n      and\n      dup2\n      jump\t// out\n        /* \"contracts/Evaluator.sol\":897:942  mapping(address => bool) public hasBeenPaired */\n    tag_132:\n      mstore(0x20, 0x07)\n      dup1\n      0x00\n      mstore\n      keccak256(0x00, 0x40)\n      0x00\n      swap2\n      pop\n      sload\n      swap1\n      0x0100\n      exp\n      swap1\n      div\n      0xff\n      and\n      dup2\n      jump\t// out\n        /* \"#utility.yul\":7:82   */\n    tag_156:\n        /* \"#utility.yul\":40:46   */\n      0x00\n        /* \"#utility.yul\":73:75   */\n      0x40\n        /* \"#utility.yul\":67:76   */\n      mload\n        /* \"#utility.yul\":57:76   */\n      swap1\n      pop\n        /* \"#utility.yul\":7:82   */\n      swap1\n      jump\t// out\n        /* \"#utility.yul\":88:205   */\n    tag_157:\n        /* \"#utility.yul\":197:198   */\n      0x00\n        /* \"#utility.yul\":194:195   */\n      dup1\n        /* \"#utility.yul\":187:199   */\n      revert\n        /* \"#utility.yul\":211:328   */\n    tag_158:\n        /* \"#utility.yul\":320:321   */\n      0x00\n        /* \"#utility.yul\":317:318   */\n      dup1\n        /* \"#utility.yul\":310:322   */\n      revert\n        /* \"#utility.yul\":334:460   */\n    tag_159:\n        /* \"#utility.yul\":371:378   */\n      0x00\n        /* \"#utility.yul\":411:453   */\n      0xffffffffffffffffffffffffffffffffffffffff\n        /* \"#utility.yul\":404:409   */\n      dup3\n        /* \"#utility.yul\":400:454   */\n      and\n        /* \"#utility.yul\":389:454   */\n      swap1\n      pop\n        /* \"#utility.yul\":334:460   */\n      swap2\n      swap1\n      pop\n      jump\t// out\n        /* \"#utility.yul\":466:562   */\n    tag_160:\n        /* \"#utility.yul\":503:510   */\n      0x00\n        /* \"#utility.yul\":532:556   */\n      tag_208\n        /* \"#utility.yul\":550:555   */\n      dup3\n        /* \"#utility.yul\":532:556   */\n      tag_159\n      jump\t// in\n    tag_208:\n        /* \"#utility.yul\":521:556   */\n      swap1\n      pop\n        /* \"#utility.yul\":466:562   */\n      swap2\n      swap1\n      pop\n      jump\t// out\n        /* \"#utility.yul\":568:690   */\n    tag_161:\n        /* \"#utility.yul\":641:665   */\n      tag_210\n        /* \"#utility.yul\":659:664   */\n      dup2\n        /* \"#utility.yul\":641:665   */\n      tag_160\n      jump\t// in\n    tag_210:\n        /* \"#utility.yul\":634:639   */\n      dup2\n        /* \"#utility.yul\":631:666   */\n      eq\n        /* \"#utility.yul\":621:684   */\n      tag_211\n      jumpi\n        /* \"#utility.yul\":680:681   */\n      0x00\n        /* \"#utility.yul\":677:678   */\n      dup1\n        /* \"#utility.yul\":670:682   */\n      revert\n        /* \"#utility.yul\":621:684   */\n    tag_211:\n        /* \"#utility.yul\":568:690   */\n      pop\n      jump\t// out\n        /* \"#utility.yul\":696:835   */\n    tag_162:\n        /* \"#utility.yul\":742:747   */\n      0x00\n        /* \"#utility.yul\":780:786   */\n      dup2\n        /* \"#utility.yul\":767:787   */\n      calldataload\n        /* \"#utility.yul\":758:787   */\n      swap1\n      pop\n        /* \"#utility.yul\":796:829   */\n      tag_213\n        /* \"#utility.yul\":823:828   */\n      dup2\n        /* \"#utility.yul\":796:829   */\n      tag_161\n      jump\t// in\n    tag_213:\n        /* \"#utility.yul\":696:835   */\n      swap3\n      swap2\n      pop\n      pop\n      jump\t// out\n        /* \"#utility.yul\":841:1170   */\n    tag_36:\n        /* \"#utility.yul\":900:906   */\n      0x00\n        /* \"#utility.yul\":949:951   */\n      0x20\n        /* \"#utility.yul\":937:946   */\n      dup3\n        /* \"#utility.yul\":928:935   */\n      dup5\n        /* \"#utility.yul\":924:947   */\n      sub\n        /* \"#utility.yul\":920:952   */\n      slt\n        /* \"#utility.yul\":917:1036   */\n      iszero\n      tag_215\n      jumpi\n        /* \"#utility.yul\":955:1034   */\n      tag_216\n      tag_157\n      jump\t// in\n    tag_216:\n        /* \"#utility.yul\":917:1036   */\n    tag_215:\n        /* \"#utility.yul\":1075:1076   */\n      0x00\n        /* \"#utility.yul\":1100:1153   */\n      tag_217\n        /* \"#utility.yul\":1145:1152   */\n      dup5\n        /* \"#utility.yul\":1136:1142   */\n      dup3\n        /* \"#utility.yul\":1125:1134   */\n      dup6\n        /* \"#utility.yul\":1121:1143   */\n      add\n        /* \"#utility.yul\":1100:1153   */\n      tag_162\n      jump\t// in\n    tag_217:\n        /* \"#utility.yul\":1090:1153   */\n      swap2\n      pop\n        /* \"#utility.yul\":1046:1163   */\n      pop\n        /* \"#utility.yul\":841:1170   */\n      swap3\n      swap2\n      pop\n      pop\n      jump\t// out\n        /* \"#utility.yul\":1176:1275   */\n    tag_163:\n        /* \"#utility.yul\":1228:1234   */\n      0x00\n        /* \"#utility.yul\":1262:1267   */\n      dup2\n        /* \"#utility.yul\":1256:1268   */\n      mload\n        /* \"#utility.yul\":1246:1268   */\n      swap1\n      pop\n        /* \"#utility.yul\":1176:1275   */\n      swap2\n      swap1\n      pop\n      jump\t// out\n        /* \"#utility.yul\":1281:1450   */\n    tag_164:\n        /* \"#utility.yul\":1365:1376   */\n      0x00\n        /* \"#utility.yul\":1399:1405   */\n      dup3\n        /* \"#utility.yul\":1394:1397   */\n      dup3\n        /* \"#utility.yul\":1387:1406   */\n      mstore\n        /* \"#utility.yul\":1439:1443   */\n      0x20\n        /* \"#utility.yul\":1434:1437   */\n      dup3\n        /* \"#utility.yul\":1430:1444   */\n      add\n        /* \"#utility.yul\":1415:1444   */\n      swap1\n      pop\n        /* \"#utility.yul\":1281:1450   */\n      swap3\n      swap2\n      pop\n      pop\n      jump\t// out\n        /* \"#utility.yul\":1456:1763   */\n    tag_165:\n        /* \"#utility.yul\":1524:1525   */\n      0x00\n        /* \"#utility.yul\":1534:1647   */\n    tag_221:\n        /* \"#utility.yul\":1548:1554   */\n      dup4\n        /* \"#utility.yul\":1545:1546   */\n      dup2\n        /* \"#utility.yul\":1542:1555   */\n      lt\n        /* \"#utility.yul\":1534:1647   */\n      iszero\n      tag_223\n      jumpi\n        /* \"#utility.yul\":1633:1634   */\n      dup1\n        /* \"#utility.yul\":1628:1631   */\n      dup3\n        /* \"#utility.yul\":1624:1635   */\n      add\n        /* \"#utility.yul\":1618:1636   */\n      mload\n        /* \"#utility.yul\":1614:1615   */\n      dup2\n        /* \"#utility.yul\":1609:1612   */\n      dup5\n        /* \"#utility.yul\":1605:1616   */\n      add\n        /* \"#utility.yul\":1598:1637   */\n      mstore\n        /* \"#utility.yul\":1570:1572   */\n      0x20\n        /* \"#utility.yul\":1567:1568   */\n      dup2\n        /* \"#utility.yul\":1563:1573   */\n      add\n        /* \"#utility.yul\":1558:1573   */\n      swap1\n      pop\n        /* \"#utility.yul\":1534:1647   */\n      jump(tag_221)\n    tag_223:\n        /* \"#utility.yul\":1665:1671   */\n      dup4\n        /* \"#utility.yul\":1662:1663   */\n      dup2\n        /* \"#utility.yul\":1659:1672   */\n      gt\n        /* \"#utility.yul\":1656:1757   */\n      iszero\n      tag_224\n      jumpi\n        /* \"#utility.yul\":1745:1746   */\n      0x00\n        /* \"#utility.yul\":1736:1742   */\n      dup5\n        /* \"#utility.yul\":1731:1734   */\n      dup5\n        /* \"#utility.yul\":1727:1743   */\n      add\n        /* \"#utility.yul\":1720:1747   */\n      mstore\n        /* \"#utility.yul\":1656:1757   */\n    tag_224:\n        /* \"#utility.yul\":1505:1763   */\n      pop\n        /* \"#utility.yul\":1456:1763   */\n      pop\n      pop\n      pop\n      jump\t// out\n        /* \"#utility.yul\":1769:1871   */\n    tag_166:\n        /* \"#utility.yul\":1810:1816   */\n      0x00\n        /* \"#utility.yul\":1861:1863   */\n      0x1f\n        /* \"#utility.yul\":1857:1864   */\n      not\n        /* \"#utility.yul\":1852:1854   */\n      0x1f\n        /* \"#utility.yul\":1845:1850   */\n      dup4\n        /* \"#utility.yul\":1841:1855   */\n      add\n        /* \"#utility.yul\":1837:1865   */\n      and\n        /* \"#utility.yul\":1827:1865   */\n      swap1\n      pop\n        /* \"#utility.yul\":1769:1871   */\n      swap2\n      swap1\n      pop\n      jump\t// out\n        /* \"#utility.yul\":1877:2241   */\n    tag_167:\n        /* \"#utility.yul\":1965:1968   */\n      0x00\n        /* \"#utility.yul\":1993:2032   */\n      tag_227\n        /* \"#utility.yul\":2026:2031   */\n      dup3\n        /* \"#utility.yul\":1993:2032   */\n      tag_163\n      jump\t// in\n    tag_227:\n        /* \"#utility.yul\":2048:2119   */\n      tag_228\n        /* \"#utility.yul\":2112:2118   */\n      dup2\n        /* \"#utility.yul\":2107:2110   */\n      dup6\n        /* \"#utility.yul\":2048:2119   */\n      tag_164\n      jump\t// in\n    tag_228:\n        /* \"#utility.yul\":2041:2119   */\n      swap4\n      pop\n        /* \"#utility.yul\":2128:2180   */\n      tag_229\n        /* \"#utility.yul\":2173:2179   */\n      dup2\n        /* \"#utility.yul\":2168:2171   */\n      dup6\n        /* \"#utility.yul\":2161:2165   */\n      0x20\n        /* \"#utility.yul\":2154:2159   */\n      dup7\n        /* \"#utility.yul\":2150:2166   */\n      add\n        /* \"#utility.yul\":2128:2180   */\n      tag_165\n      jump\t// in\n    tag_229:\n        /* \"#utility.yul\":2205:2234   */\n      tag_230\n        /* \"#utility.yul\":2227:2233   */\n      dup2\n        /* \"#utility.yul\":2205:2234   */\n      tag_166\n      jump\t// in\n    tag_230:\n        /* \"#utility.yul\":2200:2203   */\n      dup5\n        /* \"#utility.yul\":2196:2235   */\n      add\n        /* \"#utility.yul\":2189:2235   */\n      swap2\n      pop\n        /* \"#utility.yul\":1969:2241   */\n      pop\n        /* \"#utility.yul\":1877:2241   */\n      swap3\n      swap2\n      pop\n      pop\n      jump\t// out\n        /* \"#utility.yul\":2247:2560   */\n    tag_39:\n        /* \"#utility.yul\":2360:2364   */\n      0x00\n        /* \"#utility.yul\":2398:2400   */\n      0x20\n        /* \"#utility.yul\":2387:2396   */\n      dup3\n        /* \"#utility.yul\":2383:2401   */\n      add\n        /* \"#utility.yul\":2375:2401   */\n      swap1\n      pop\n        /* \"#utility.yul\":2447:2456   */\n      dup2\n        /* \"#utility.yul\":2441:2445   */\n      dup2\n        /* \"#utility.yul\":2437:2457   */\n      sub\n        /* \"#utility.yul\":2433:2434   */\n      0x00\n        /* \"#utility.yul\":2422:2431   */\n      dup4\n        /* \"#utility.yul\":2418:2435   */\n      add\n        /* \"#utility.yul\":2411:2458   */\n      mstore\n        /* \"#utility.yul\":2475:2553   */\n      tag_232\n        /* \"#utility.yul\":2548:2552   */\n      dup2\n        /* \"#utility.yul\":2539:2545   */\n      dup5\n        /* \"#utility.yul\":2475:2553   */\n      tag_167\n      jump\t// in\n    tag_232:\n        /* \"#utility.yul\":2467:2553   */\n      swap1\n      pop\n        /* \"#utility.yul\":2247:2560   */\n      swap3\n      swap2\n      pop\n      pop\n      jump\t// out\n        /* \"#utility.yul\":2566:2687   */\n    tag_168:\n        /* \"#utility.yul\":2628:2635   */\n      0x00\n        /* \"#utility.yul\":2657:2681   */\n      tag_234\n        /* \"#utility.yul\":2675:2680   */\n      dup3\n        /* \"#utility.yul\":2657:2681   */\n      tag_160\n      jump\t// in\n    tag_234:\n        /* \"#utility.yul\":2646:2681   */\n      swap1\n      pop\n        /* \"#utility.yul\":2566:2687   */\n      swap2\n      swap1\n      pop\n      jump\t// out\n        /* \"#utility.yul\":2693:2865   */\n    tag_169:\n        /* \"#utility.yul\":2791:2840   */\n      tag_236\n        /* \"#utility.yul\":2834:2839   */\n      dup2\n        /* \"#utility.yul\":2791:2840   */\n      tag_168\n      jump\t// in\n    tag_236:\n        /* \"#utility.yul\":2784:2789   */\n      dup2\n        /* \"#utility.yul\":2781:2841   */\n      eq\n        /* \"#utility.yul\":2771:2859   */\n      tag_237\n      jumpi\n        /* \"#utility.yul\":2855:2856   */\n      0x00\n        /* \"#utility.yul\":2852:2853   */\n      dup1\n        /* \"#utility.yul\":2845:2857   */\n      revert\n        /* \"#utility.yul\":2771:2859   */\n    tag_237:\n        /* \"#utility.yul\":2693:2865   */\n      pop\n      jump\t// out\n        /* \"#utility.yul\":2871:3060   */\n    tag_170:\n        /* \"#utility.yul\":2942:2947   */\n      0x00\n        /* \"#utility.yul\":2980:2986   */\n      dup2\n        /* \"#utility.yul\":2967:2987   */\n      calldataload\n        /* \"#utility.yul\":2958:2987   */\n      swap1\n      pop\n        /* \"#utility.yul\":2996:3054   */\n      tag_239\n        /* \"#utility.yul\":3048:3053   */\n      dup2\n        /* \"#utility.yul\":2996:3054   */\n      tag_169\n      jump\t// in\n    tag_239:\n        /* \"#utility.yul\":2871:3060   */\n      swap3\n      swap2\n      pop\n      pop\n      jump\t// out\n        /* \"#utility.yul\":3066:3445   */\n    tag_49:\n        /* \"#utility.yul\":3150:3156   */\n      0x00\n        /* \"#utility.yul\":3199:3201   */\n      0x20\n        /* \"#utility.yul\":3187:3196   */\n      dup3\n        /* \"#utility.yul\":3178:3185   */\n      dup5\n        /* \"#utility.yul\":3174:3197   */\n      sub\n        /* \"#utility.yul\":3170:3202   */\n      slt\n        /* \"#utility.yul\":3167:3286   */\n      iszero\n      tag_241\n      jumpi\n        /* \"#utility.yul\":3205:3284   */\n      tag_242\n      tag_157\n      jump\t// in\n    tag_242:\n        /* \"#utility.yul\":3167:3286   */\n    tag_241:\n        /* \"#utility.yul\":3325:3326   */\n      0x00\n        /* \"#utility.yul\":3350:3428   */\n      tag_243\n        /* \"#utility.yul\":3420:3427   */\n      dup5\n        /* \"#utility.yul\":3411:3417   */\n      dup3\n        /* \"#utility.yul\":3400:3409   */\n      dup6\n        /* \"#utility.yul\":3396:3418   */\n      add\n        /* \"#utility.yul\":3350:3428   */\n      tag_170\n      jump\t// in\n    tag_243:\n        /* \"#utility.yul\":3340:3428   */\n      swap2\n      pop\n        /* \"#utility.yul\":3296:3438   */\n      pop\n        /* \"#utility.yul\":3066:3445   */\n      swap3\n      swap2\n      pop\n      pop\n      jump\t// out\n        /* \"#utility.yul\":3451:3528   */\n    tag_171:\n        /* \"#utility.yul\":3488:3495   */\n      0x00\n        /* \"#utility.yul\":3517:3522   */\n      dup2\n        /* \"#utility.yul\":3506:3522   */\n      swap1\n      pop\n        /* \"#utility.yul\":3451:3528   */\n      swap2\n      swap1\n      pop\n      jump\t// out\n        /* \"#utility.yul\":3534:3656   */\n    tag_172:\n        /* \"#utility.yul\":3607:3631   */\n      tag_246\n        /* \"#utility.yul\":3625:3630   */\n      dup2\n        /* \"#utility.yul\":3607:3631   */\n      tag_171\n      jump\t// in\n    tag_246:\n        /* \"#utility.yul\":3600:3605   */\n      dup2\n        /* \"#utility.yul\":3597:3632   */\n      eq\n        /* \"#utility.yul\":3587:3650   */\n      tag_247\n      jumpi\n        /* \"#utility.yul\":3646:3647   */\n      0x00\n        /* \"#utility.yul\":3643:3644   */\n      dup1\n        /* \"#utility.yul\":3636:3648   */\n      revert\n        /* \"#utility.yul\":3587:3650   */\n    tag_247:\n        /* \"#utility.yul\":3534:3656   */\n      pop\n      jump\t// out\n        /* \"#utility.yul\":3662:3801   */\n    tag_173:\n        /* \"#utility.yul\":3708:3713   */\n      0x00\n        /* \"#utility.yul\":3746:3752   */\n      dup2\n        /* \"#utility.yul\":3733:3753   */\n      calldataload\n        /* \"#utility.yul\":3724:3753   */\n      swap1\n      pop\n        /* \"#utility.yul\":3762:3795   */\n      tag_249\n        /* \"#utility.yul\":3789:3794   */\n      dup2\n        /* \"#utility.yul\":3762:3795   */\n      tag_172\n      jump\t// in\n    tag_249:\n        /* \"#utility.yul\":3662:3801   */\n      swap3\n      swap2\n      pop\n      pop\n      jump\t// out\n        /* \"#utility.yul\":3807:4281   */\n    tag_54:\n        /* \"#utility.yul\":3875:3881   */\n      0x00\n        /* \"#utility.yul\":3883:3889   */\n      dup1\n        /* \"#utility.yul\":3932:3934   */\n      0x40\n        /* \"#utility.yul\":3920:3929   */\n      dup4\n        /* \"#utility.yul\":3911:3918   */\n      dup6\n        /* \"#utility.yul\":3907:3930   */\n      sub\n        /* \"#utility.yul\":3903:3935   */\n      slt\n        /* \"#utility.yul\":3900:4019   */\n      iszero\n      tag_251\n      jumpi\n        /* \"#utility.yul\":3938:4017   */\n      tag_252\n      tag_157\n      jump\t// in\n    tag_252:\n        /* \"#utility.yul\":3900:4019   */\n    tag_251:\n        /* \"#utility.yul\":4058:4059   */\n      0x00\n        /* \"#utility.yul\":4083:4136   */\n      tag_253\n        /* \"#utility.yul\":4128:4135   */\n      dup6\n        /* \"#utility.yul\":4119:4125   */\n      dup3\n        /* \"#utility.yul\":4108:4117   */\n      dup7\n        /* \"#utility.yul\":4104:4126   */\n      add\n        /* \"#utility.yul\":4083:4136   */\n      tag_162\n      jump\t// in\n    tag_253:\n        /* \"#utility.yul\":4073:4136   */\n      swap3\n      pop\n        /* \"#utility.yul\":4029:4146   */\n      pop\n        /* \"#utility.yul\":4185:4187   */\n      0x20\n        /* \"#utility.yul\":4211:4264   */\n      tag_254\n        /* \"#utility.yul\":4256:4263   */\n      dup6\n        /* \"#utility.yul\":4247:4253   */\n      dup3\n        /* \"#utility.yul\":4236:4245   */\n      dup7\n        /* \"#utility.yul\":4232:4254   */\n      add\n        /* \"#utility.yul\":4211:4264   */\n      tag_173\n      jump\t// in\n    tag_254:\n        /* \"#utility.yul\":4201:4264   */\n      swap2\n      pop\n        /* \"#utility.yul\":4156:4274   */\n      pop\n        /* \"#utility.yul\":3807:4281   */\n      swap3\n      pop\n      swap3\n      swap1\n      pop\n      jump\t// out\n        /* \"#utility.yul\":4287:4377   */\n    tag_174:\n        /* \"#utility.yul\":4321:4328   */\n      0x00\n        /* \"#utility.yul\":4364:4369   */\n      dup2\n        /* \"#utility.yul\":4357:4370   */\n      iszero\n        /* \"#utility.yul\":4350:4371   */\n      iszero\n        /* \"#utility.yul\":4339:4371   */\n      swap1\n      pop\n        /* \"#utility.yul\":4287:4377   */\n      swap2\n      swap1\n      pop\n      jump\t// out\n        /* \"#utility.yul\":4383:4492   */\n    tag_175:\n        /* \"#utility.yul\":4464:4485   */\n      tag_257\n        /* \"#utility.yul\":4479:4484   */\n      dup2\n        /* \"#utility.yul\":4464:4485   */\n      tag_174\n      jump\t// in\n    tag_257:\n        /* \"#utility.yul\":4459:4462   */\n      dup3\n        /* \"#utility.yul\":4452:4486   */\n      mstore\n        /* \"#utility.yul\":4383:4492   */\n      pop\n      pop\n      jump\t// out\n        /* \"#utility.yul\":4498:4708   */\n    tag_57:\n        /* \"#utility.yul\":4585:4589   */\n      0x00\n        /* \"#utility.yul\":4623:4625   */\n      0x20\n        /* \"#utility.yul\":4612:4621   */\n      dup3\n        /* \"#utility.yul\":4608:4626   */\n      add\n        /* \"#utility.yul\":4600:4626   */\n      swap1\n      pop\n        /* \"#utility.yul\":4636:4701   */\n      tag_259\n        /* \"#utility.yul\":4698:4699   */\n      0x00\n        /* \"#utility.yul\":4687:4696   */\n      dup4\n        /* \"#utility.yul\":4683:4700   */\n      add\n        /* \"#utility.yul\":4674:4680   */\n      dup5\n        /* \"#utility.yul\":4636:4701   */\n      tag_175\n      jump\t// in\n    tag_259:\n        /* \"#utility.yul\":4498:4708   */\n      swap3\n      swap2\n      pop\n      pop\n      jump\t// out\n        /* \"#utility.yul\":4714:4832   */\n    tag_176:\n        /* \"#utility.yul\":4801:4825   */\n      tag_261\n        /* \"#utility.yul\":4819:4824   */\n      dup2\n        /* \"#utility.yul\":4801:4825   */\n      tag_171\n      jump\t// in\n    tag_261:\n        /* \"#utility.yul\":4796:4799   */\n      dup3\n        /* \"#utility.yul\":4789:4826   */\n      mstore\n        /* \"#utility.yul\":4714:4832   */\n      pop\n      pop\n      jump\t// out\n        /* \"#utility.yul\":4838:5060   */\n    tag_62:\n        /* \"#utility.yul\":4931:4935   */\n      0x00\n        /* \"#utility.yul\":4969:4971   */\n      0x20\n        /* \"#utility.yul\":4958:4967   */\n      dup3\n        /* \"#utility.yul\":4954:4972   */\n      add\n        /* \"#utility.yul\":4946:4972   */\n      swap1\n      pop\n        /* \"#utility.yul\":4982:5053   */\n      tag_263\n        /* \"#utility.yul\":5050:5051   */\n      0x00\n        /* \"#utility.yul\":5039:5048   */\n      dup4\n        /* \"#utility.yul\":5035:5052   */\n      add\n        /* \"#utility.yul\":5026:5032   */\n      dup5\n        /* \"#utility.yul\":4982:5053   */\n      tag_176\n      jump\t// in\n    tag_263:\n        /* \"#utility.yul\":4838:5060   */\n      swap3\n      swap2\n      pop\n      pop\n      jump\t// out\n        /* \"#utility.yul\":5066:5143   */\n    tag_177:\n        /* \"#utility.yul\":5103:5110   */\n      0x00\n        /* \"#utility.yul\":5132:5137   */\n      dup2\n        /* \"#utility.yul\":5121:5137   */\n      swap1\n      pop\n        /* \"#utility.yul\":5066:5143   */\n      swap2\n      swap1\n      pop\n      jump\t// out\n        /* \"#utility.yul\":5149:5271   */\n    tag_178:\n        /* \"#utility.yul\":5222:5246   */\n      tag_266\n        /* \"#utility.yul\":5240:5245   */\n      dup2\n        /* \"#utility.yul\":5222:5246   */\n      tag_177\n      jump\t// in\n    tag_266:\n        /* \"#utility.yul\":5215:5220   */\n      dup2\n        /* \"#utility.yul\":5212:5247   */\n      eq\n        /* \"#utility.yul\":5202:5265   */\n      tag_267\n      jumpi\n        /* \"#utility.yul\":5261:5262   */\n      0x00\n        /* \"#utility.yul\":5258:5259   */\n      dup1\n        /* \"#utility.yul\":5251:5263   */\n      revert\n        /* \"#utility.yul\":5202:5265   */\n    tag_267:\n        /* \"#utility.yul\":5149:5271   */\n      pop\n      jump\t// out\n        /* \"#utility.yul\":5277:5416   */\n    tag_179:\n        /* \"#utility.yul\":5323:5328   */\n      0x00\n        /* \"#utility.yul\":5361:5367   */\n      dup2\n        /* \"#utility.yul\":5348:5368   */\n      calldataload\n        /* \"#utility.yul\":5339:5368   */\n      swap1\n      pop\n        /* \"#utility.yul\":5377:5410   */\n      tag_269\n        /* \"#utility.yul\":5404:5409   */\n      dup2\n        /* \"#utility.yul\":5377:5410   */\n      tag_178\n      jump\t// in\n    tag_269:\n        /* \"#utility.yul\":5277:5416   */\n      swap3\n      swap2\n      pop\n      pop\n      jump\t// out\n        /* \"#utility.yul\":5422:5751   */\n    tag_74:\n        /* \"#utility.yul\":5481:5487   */\n      0x00\n        /* \"#utility.yul\":5530:5532   */\n      0x20\n        /* \"#utility.yul\":5518:5527   */\n      dup3\n        /* \"#utility.yul\":5509:5516   */\n      dup5\n        /* \"#utility.yul\":5505:5528   */\n      sub\n        /* \"#utility.yul\":5501:5533   */\n      slt\n        /* \"#utility.yul\":5498:5617   */\n      iszero\n      tag_271\n      jumpi\n        /* \"#utility.yul\":5536:5615   */\n      tag_272\n      tag_157\n      jump\t// in\n    tag_272:\n        /* \"#utility.yul\":5498:5617   */\n    tag_271:\n        /* \"#utility.yul\":5656:5657   */\n      0x00\n        /* \"#utility.yul\":5681:5734   */\n      tag_273\n        /* \"#utility.yul\":5726:5733   */\n      dup5\n        /* \"#utility.yul\":5717:5723   */\n      dup3\n        /* \"#utility.yul\":5706:5715   */\n      dup6\n        /* \"#utility.yul\":5702:5724   */\n      add\n        /* \"#utility.yul\":5681:5734   */\n      tag_179\n      jump\t// in\n    tag_273:\n        /* \"#utility.yul\":5671:5734   */\n      swap2\n      pop\n        /* \"#utility.yul\":5627:5744   */\n      pop\n        /* \"#utility.yul\":5422:5751   */\n      swap3\n      swap2\n      pop\n      pop\n      jump\t// out\n        /* \"#utility.yul\":5757:5874   */\n    tag_180:\n        /* \"#utility.yul\":5866:5867   */\n      0x00\n        /* \"#utility.yul\":5863:5864   */\n      dup1\n        /* \"#utility.yul\":5856:5868   */\n      revert\n        /* \"#utility.yul\":5880:6060   */\n    tag_181:\n        /* \"#utility.yul\":5928:6005   */\n      0x4e487b7100000000000000000000000000000000000000000000000000000000\n        /* \"#utility.yul\":5925:5926   */\n      0x00\n        /* \"#utility.yul\":5918:6006   */\n      mstore\n        /* \"#utility.yul\":6025:6029   */\n      0x41\n        /* \"#utility.yul\":6022:6023   */\n      0x04\n        /* \"#utility.yul\":6015:6030   */\n      mstore\n        /* \"#utility.yul\":6049:6053   */\n      0x24\n        /* \"#utility.yul\":6046:6047   */\n      0x00\n        /* \"#utility.yul\":6039:6054   */\n      revert\n        /* \"#utility.yul\":6066:6347   */\n    tag_182:\n        /* \"#utility.yul\":6149:6176   */\n      tag_277\n        /* \"#utility.yul\":6171:6175   */\n      dup3\n        /* \"#utility.yul\":6149:6176   */\n      tag_166\n      jump\t// in\n    tag_277:\n        /* \"#utility.yul\":6141:6147   */\n      dup2\n        /* \"#utility.yul\":6137:6177   */\n      add\n        /* \"#utility.yul\":6279:6285   */\n      dup2\n        /* \"#utility.yul\":6267:6277   */\n      dup2\n        /* \"#utility.yul\":6264:6286   */\n      lt\n        /* \"#utility.yul\":6243:6261   */\n      0xffffffffffffffff\n        /* \"#utility.yul\":6231:6241   */\n      dup3\n        /* \"#utility.yul\":6228:6262   */\n      gt\n        /* \"#utility.yul\":6225:6287   */\n      or\n        /* \"#utility.yul\":6222:6310   */\n      iszero\n      tag_278\n      jumpi\n        /* \"#utility.yul\":6290:6308   */\n      tag_279\n      tag_181\n      jump\t// in\n    tag_279:\n        /* \"#utility.yul\":6222:6310   */\n    tag_278:\n        /* \"#utility.yul\":6330:6340   */\n      dup1\n        /* \"#utility.yul\":6326:6328   */\n      0x40\n        /* \"#utility.yul\":6319:6341   */\n      mstore\n        /* \"#utility.yul\":6109:6347   */\n      pop\n        /* \"#utility.yul\":6066:6347   */\n      pop\n      pop\n      jump\t// out\n        /* \"#utility.yul\":6353:6482   */\n    tag_183:\n        /* \"#utility.yul\":6387:6393   */\n      0x00\n        /* \"#utility.yul\":6414:6434   */\n      tag_281\n      tag_156\n      jump\t// in\n    tag_281:\n        /* \"#utility.yul\":6404:6434   */\n      swap1\n      pop\n        /* \"#utility.yul\":6443:6476   */\n      tag_282\n        /* \"#utility.yul\":6471:6475   */\n      dup3\n        /* \"#utility.yul\":6463:6469   */\n      dup3\n        /* \"#utility.yul\":6443:6476   */\n      tag_182\n      jump\t// in\n    tag_282:\n        /* \"#utility.yul\":6353:6482   */\n      swap2\n      swap1\n      pop\n      jump\t// out\n        /* \"#utility.yul\":6488:6738   */\n    tag_184:\n        /* \"#utility.yul\":6564:6568   */\n      0x00\n        /* \"#utility.yul\":6654:6672   */\n      0xffffffffffffffff\n        /* \"#utility.yul\":6646:6652   */\n      dup3\n        /* \"#utility.yul\":6643:6673   */\n      gt\n        /* \"#utility.yul\":6640:6696   */\n      iszero\n      tag_284\n      jumpi\n        /* \"#utility.yul\":6676:6694   */\n      tag_285\n      tag_181\n      jump\t// in\n    tag_285:\n        /* \"#utility.yul\":6640:6696   */\n    tag_284:\n        /* \"#utility.yul\":6726:6730   */\n      0x20\n        /* \"#utility.yul\":6718:6724   */\n      dup3\n        /* \"#utility.yul\":6714:6731   */\n      mul\n        /* \"#utility.yul\":6706:6731   */\n      swap1\n      pop\n        /* \"#utility.yul\":6488:6738   */\n      swap2\n      swap1\n      pop\n      jump\t// out\n        /* \"#utility.yul\":6744:6861   */\n    tag_185:\n        /* \"#utility.yul\":6853:6854   */\n      0x00\n        /* \"#utility.yul\":6850:6851   */\n      dup1\n        /* \"#utility.yul\":6843:6855   */\n      revert\n        /* \"#utility.yul\":6886:7531   */\n    tag_186:\n        /* \"#utility.yul\":6981:6986   */\n      0x00\n        /* \"#utility.yul\":7006:7086   */\n      tag_288\n        /* \"#utility.yul\":7022:7085   */\n      tag_289\n        /* \"#utility.yul\":7078:7084   */\n      dup5\n        /* \"#utility.yul\":7022:7085   */\n      tag_184\n      jump\t// in\n    tag_289:\n        /* \"#utility.yul\":7006:7086   */\n      tag_183\n      jump\t// in\n    tag_288:\n        /* \"#utility.yul\":6997:7086   */\n      swap1\n      pop\n        /* \"#utility.yul\":7106:7111   */\n      dup1\n        /* \"#utility.yul\":7159:7163   */\n      0x20\n        /* \"#utility.yul\":7151:7157   */\n      dup5\n        /* \"#utility.yul\":7147:7164   */\n      mul\n        /* \"#utility.yul\":7139:7145   */\n      dup4\n        /* \"#utility.yul\":7135:7165   */\n      add\n        /* \"#utility.yul\":7188:7191   */\n      dup6\n        /* \"#utility.yul\":7180:7186   */\n      dup2\n        /* \"#utility.yul\":7177:7192   */\n      gt\n        /* \"#utility.yul\":7174:7296   */\n      iszero\n      tag_290\n      jumpi\n        /* \"#utility.yul\":7207:7286   */\n      tag_291\n      tag_185\n      jump\t// in\n    tag_291:\n        /* \"#utility.yul\":7174:7296   */\n    tag_290:\n        /* \"#utility.yul\":7322:7328   */\n      dup4\n        /* \"#utility.yul\":7305:7525   */\n    tag_292:\n        /* \"#utility.yul\":7339:7345   */\n      dup2\n        /* \"#utility.yul\":7334:7337   */\n      dup2\n        /* \"#utility.yul\":7331:7346   */\n      lt\n        /* \"#utility.yul\":7305:7525   */\n      iszero\n      tag_294\n      jumpi\n        /* \"#utility.yul\":7414:7417   */\n      dup1\n        /* \"#utility.yul\":7443:7480   */\n      tag_295\n        /* \"#utility.yul\":7476:7479   */\n      dup9\n        /* \"#utility.yul\":7464:7474   */\n      dup3\n        /* \"#utility.yul\":7443:7480   */\n      tag_173\n      jump\t// in\n    tag_295:\n        /* \"#utility.yul\":7438:7441   */\n      dup5\n        /* \"#utility.yul\":7431:7481   */\n      mstore\n        /* \"#utility.yul\":7510:7514   */\n      0x20\n        /* \"#utility.yul\":7505:7508   */\n      dup5\n        /* \"#utility.yul\":7501:7515   */\n      add\n        /* \"#utility.yul\":7494:7515   */\n      swap4\n      pop\n        /* \"#utility.yul\":7381:7525   */\n      pop\n        /* \"#utility.yul\":7365:7369   */\n      0x20\n        /* \"#utility.yul\":7360:7363   */\n      dup2\n        /* \"#utility.yul\":7356:7370   */\n      add\n        /* \"#utility.yul\":7349:7370   */\n      swap1\n      pop\n        /* \"#utility.yul\":7305:7525   */\n      jump(tag_292)\n    tag_294:\n        /* \"#utility.yul\":7309:7330   */\n      pop\n        /* \"#utility.yul\":6987:7531   */\n      pop\n      pop\n        /* \"#utility.yul\":6886:7531   */\n      swap4\n      swap3\n      pop\n      pop\n      pop\n      jump\t// out\n        /* \"#utility.yul\":7556:7897   */\n    tag_187:\n        /* \"#utility.yul\":7626:7631   */\n      0x00\n        /* \"#utility.yul\":7675:7678   */\n      dup3\n        /* \"#utility.yul\":7668:7672   */\n      0x1f\n        /* \"#utility.yul\":7660:7666   */\n      dup4\n        /* \"#utility.yul\":7656:7673   */\n      add\n        /* \"#utility.yul\":7652:7679   */\n      slt\n        /* \"#utility.yul\":7642:7764   */\n      tag_297\n      jumpi\n        /* \"#utility.yul\":7683:7762   */\n      tag_298\n      tag_180\n      jump\t// in\n    tag_298:\n        /* \"#utility.yul\":7642:7764   */\n    tag_297:\n        /* \"#utility.yul\":7787:7791   */\n      0x14\n        /* \"#utility.yul\":7809:7891   */\n      tag_299\n        /* \"#utility.yul\":7887:7890   */\n      dup5\n        /* \"#utility.yul\":7879:7885   */\n      dup3\n        /* \"#utility.yul\":7871:7877   */\n      dup6\n        /* \"#utility.yul\":7809:7891   */\n      tag_186\n      jump\t// in\n    tag_299:\n        /* \"#utility.yul\":7800:7891   */\n      swap2\n      pop\n        /* \"#utility.yul\":7632:7897   */\n      pop\n        /* \"#utility.yul\":7556:7897   */\n      swap3\n      swap2\n      pop\n      pop\n      jump\t// out\n        /* \"#utility.yul\":7903:8163   */\n    tag_188:\n        /* \"#utility.yul\":7989:7993   */\n      0x00\n        /* \"#utility.yul\":8079:8097   */\n      0xffffffffffffffff\n        /* \"#utility.yul\":8071:8077   */\n      dup3\n        /* \"#utility.yul\":8068:8098   */\n      gt\n        /* \"#utility.yul\":8065:8121   */\n      iszero\n      tag_301\n      jumpi\n        /* \"#utility.yul\":8101:8119   */\n      tag_302\n      tag_181\n      jump\t// in\n    tag_302:\n        /* \"#utility.yul\":8065:8121   */\n    tag_301:\n        /* \"#utility.yul\":8151:8155   */\n      0x20\n        /* \"#utility.yul\":8143:8149   */\n      dup3\n        /* \"#utility.yul\":8139:8156   */\n      mul\n        /* \"#utility.yul\":8131:8156   */\n      swap1\n      pop\n        /* \"#utility.yul\":7903:8163   */\n      swap2\n      swap1\n      pop\n      jump\t// out\n        /* \"#utility.yul\":8169:8286   */\n    tag_189:\n        /* \"#utility.yul\":8278:8279   */\n      0x00\n        /* \"#utility.yul\":8275:8276   */\n      dup1\n        /* \"#utility.yul\":8268:8280   */\n      revert\n        /* \"#utility.yul\":8292:8600   */\n    tag_190:\n        /* \"#utility.yul\":8354:8358   */\n      0x00\n        /* \"#utility.yul\":8444:8462   */\n      0xffffffffffffffff\n        /* \"#utility.yul\":8436:8442   */\n      dup3\n        /* \"#utility.yul\":8433:8463   */\n      gt\n        /* \"#utility.yul\":8430:8486   */\n      iszero\n      tag_305\n      jumpi\n        /* \"#utility.yul\":8466:8484   */\n      tag_306\n      tag_181\n      jump\t// in\n    tag_306:\n        /* \"#utility.yul\":8430:8486   */\n    tag_305:\n        /* \"#utility.yul\":8504:8533   */\n      tag_307\n        /* \"#utility.yul\":8526:8532   */\n      dup3\n        /* \"#utility.yul\":8504:8533   */\n      tag_166\n      jump\t// in\n    tag_307:\n        /* \"#utility.yul\":8496:8533   */\n      swap1\n      pop\n        /* \"#utility.yul\":8588:8592   */\n      0x20\n        /* \"#utility.yul\":8582:8586   */\n      dup2\n        /* \"#utility.yul\":8578:8593   */\n      add\n        /* \"#utility.yul\":8570:8593   */\n      swap1\n      pop\n        /* \"#utility.yul\":8292:8600   */\n      swap2\n      swap1\n      pop\n      jump\t// out\n        /* \"#utility.yul\":8606:8760   */\n    tag_191:\n        /* \"#utility.yul\":8690:8696   */\n      dup3\n        /* \"#utility.yul\":8685:8688   */\n      dup2\n        /* \"#utility.yul\":8680:8683   */\n      dup4\n        /* \"#utility.yul\":8667:8697   */\n      calldatacopy\n        /* \"#utility.yul\":8752:8753   */\n      0x00\n        /* \"#utility.yul\":8743:8749   */\n      dup4\n        /* \"#utility.yul\":8738:8741   */\n      dup4\n        /* \"#utility.yul\":8734:8750   */\n      add\n        /* \"#utility.yul\":8727:8754   */\n      mstore\n        /* \"#utility.yul\":8606:8760   */\n      pop\n      pop\n      pop\n      jump\t// out\n        /* \"#utility.yul\":8766:9178   */\n    tag_192:\n        /* \"#utility.yul\":8844:8849   */\n      0x00\n        /* \"#utility.yul\":8869:8935   */\n      tag_310\n        /* \"#utility.yul\":8885:8934   */\n      tag_311\n        /* \"#utility.yul\":8927:8933   */\n      dup5\n        /* \"#utility.yul\":8885:8934   */\n      tag_190\n      jump\t// in\n    tag_311:\n        /* \"#utility.yul\":8869:8935   */\n      tag_183\n      jump\t// in\n    tag_310:\n        /* \"#utility.yul\":8860:8935   */\n      swap1\n      pop\n        /* \"#utility.yul\":8958:8964   */\n      dup3\n        /* \"#utility.yul\":8951:8956   */\n      dup2\n        /* \"#utility.yul\":8944:8965   */\n      mstore\n        /* \"#utility.yul\":8996:9000   */\n      0x20\n        /* \"#utility.yul\":8989:8994   */\n      dup2\n        /* \"#utility.yul\":8985:9001   */\n      add\n        /* \"#utility.yul\":9034:9037   */\n      dup5\n        /* \"#utility.yul\":9025:9031   */\n      dup5\n        /* \"#utility.yul\":9020:9023   */\n      dup5\n        /* \"#utility.yul\":9016:9032   */\n      add\n        /* \"#utility.yul\":9013:9038   */\n      gt\n        /* \"#utility.yul\":9010:9122   */\n      iszero\n      tag_312\n      jumpi\n        /* \"#utility.yul\":9041:9120   */\n      tag_313\n      tag_189\n      jump\t// in\n    tag_313:\n        /* \"#utility.yul\":9010:9122   */\n    tag_312:\n        /* \"#utility.yul\":9131:9172   */\n      tag_314\n        /* \"#utility.yul\":9165:9171   */\n      dup5\n        /* \"#utility.yul\":9160:9163   */\n      dup3\n        /* \"#utility.yul\":9155:9158   */\n      dup6\n        /* \"#utility.yul\":9131:9172   */\n      tag_191\n      jump\t// in\n    tag_314:\n        /* \"#utility.yul\":8850:9178   */\n      pop\n        /* \"#utility.yul\":8766:9178   */\n      swap4\n      swap3\n      pop\n      pop\n      pop\n      jump\t// out\n        /* \"#utility.yul\":9198:9538   */\n    tag_193:\n        /* \"#utility.yul\":9254:9259   */\n      0x00\n        /* \"#utility.yul\":9303:9306   */\n      dup3\n        /* \"#utility.yul\":9296:9300   */\n      0x1f\n        /* \"#utility.yul\":9288:9294   */\n      dup4\n        /* \"#utility.yul\":9284:9301   */\n      add\n        /* \"#utility.yul\":9280:9307   */\n      slt\n        /* \"#utility.yul\":9270:9392   */\n      tag_316\n      jumpi\n        /* \"#utility.yul\":9311:9390   */\n      tag_317\n      tag_180\n      jump\t// in\n    tag_317:\n        /* \"#utility.yul\":9270:9392   */\n    tag_316:\n        /* \"#utility.yul\":9428:9434   */\n      dup2\n        /* \"#utility.yul\":9415:9435   */\n      calldataload\n        /* \"#utility.yul\":9453:9532   */\n      tag_318\n        /* \"#utility.yul\":9528:9531   */\n      dup5\n        /* \"#utility.yul\":9520:9526   */\n      dup3\n        /* \"#utility.yul\":9513:9517   */\n      0x20\n        /* \"#utility.yul\":9505:9511   */\n      dup7\n        /* \"#utility.yul\":9501:9518   */\n      add\n        /* \"#utility.yul\":9453:9532   */\n      tag_192\n      jump\t// in\n    tag_318:\n        /* \"#utility.yul\":9444:9532   */\n      swap2\n      pop\n        /* \"#utility.yul\":9260:9538   */\n      pop\n        /* \"#utility.yul\":9198:9538   */\n      swap3\n      swap2\n      pop\n      pop\n      jump\t// out\n        /* \"#utility.yul\":9562:10442   */\n    tag_194:\n        /* \"#utility.yul\":9667:9672   */\n      0x00\n        /* \"#utility.yul\":9692:9782   */\n      tag_320\n        /* \"#utility.yul\":9708:9781   */\n      tag_321\n        /* \"#utility.yul\":9774:9780   */\n      dup5\n        /* \"#utility.yul\":9708:9781   */\n      tag_188\n      jump\t// in\n    tag_321:\n        /* \"#utility.yul\":9692:9782   */\n      tag_183\n      jump\t// in\n    tag_320:\n        /* \"#utility.yul\":9683:9782   */\n      swap1\n      pop\n        /* \"#utility.yul\":9802:9807   */\n      dup1\n        /* \"#utility.yul\":9855:9859   */\n      0x20\n        /* \"#utility.yul\":9847:9853   */\n      dup5\n        /* \"#utility.yul\":9843:9860   */\n      mul\n        /* \"#utility.yul\":9835:9841   */\n      dup4\n        /* \"#utility.yul\":9831:9861   */\n      add\n        /* \"#utility.yul\":9884:9887   */\n      dup6\n        /* \"#utility.yul\":9876:9882   */\n      dup2\n        /* \"#utility.yul\":9873:9888   */\n      gt\n        /* \"#utility.yul\":9870:9992   */\n      iszero\n      tag_322\n      jumpi\n        /* \"#utility.yul\":9903:9982   */\n      tag_323\n      tag_185\n      jump\t// in\n    tag_323:\n        /* \"#utility.yul\":9870:9992   */\n    tag_322:\n        /* \"#utility.yul\":10018:10024   */\n      dup4\n        /* \"#utility.yul\":10001:10436   */\n    tag_324:\n        /* \"#utility.yul\":10035:10041   */\n      dup2\n        /* \"#utility.yul\":10030:10033   */\n      dup2\n        /* \"#utility.yul\":10027:10042   */\n      lt\n        /* \"#utility.yul\":10001:10436   */\n      iszero\n      tag_326\n      jumpi\n        /* \"#utility.yul\":10124:10127   */\n      dup1\n        /* \"#utility.yul\":10111:10128   */\n      calldataload\n        /* \"#utility.yul\":10160:10178   */\n      0xffffffffffffffff\n        /* \"#utility.yul\":10147:10158   */\n      dup2\n        /* \"#utility.yul\":10144:10179   */\n      gt\n        /* \"#utility.yul\":10141:10263   */\n      iszero\n      tag_327\n      jumpi\n        /* \"#utility.yul\":10182:10261   */\n      tag_328\n      tag_180\n      jump\t// in\n    tag_328:\n        /* \"#utility.yul\":10141:10263   */\n    tag_327:\n        /* \"#utility.yul\":10306:10317   */\n      dup1\n        /* \"#utility.yul\":10298:10304   */\n      dup7\n        /* \"#utility.yul\":10294:10318   */\n      add\n        /* \"#utility.yul\":10344:10391   */\n      tag_329\n        /* \"#utility.yul\":10387:10390   */\n      dup10\n        /* \"#utility.yul\":10375:10385   */\n      dup3\n        /* \"#utility.yul\":10344:10391   */\n      tag_193\n      jump\t// in\n    tag_329:\n        /* \"#utility.yul\":10339:10342   */\n      dup6\n        /* \"#utility.yul\":10332:10392   */\n      mstore\n        /* \"#utility.yul\":10421:10425   */\n      0x20\n        /* \"#utility.yul\":10416:10419   */\n      dup6\n        /* \"#utility.yul\":10412:10426   */\n      add\n        /* \"#utility.yul\":10405:10426   */\n      swap5\n      pop\n        /* \"#utility.yul\":10077:10436   */\n      pop\n      pop\n        /* \"#utility.yul\":10061:10065   */\n      0x20\n        /* \"#utility.yul\":10056:10059   */\n      dup2\n        /* \"#utility.yul\":10052:10066   */\n      add\n        /* \"#utility.yul\":10045:10066   */\n      swap1\n      pop\n        /* \"#utility.yul\":10001:10436   */\n      jump(tag_324)\n    tag_326:\n        /* \"#utility.yul\":10005:10026   */\n      pop\n        /* \"#utility.yul\":9673:10442   */\n      pop\n      pop\n        /* \"#utility.yul\":9562:10442   */\n      swap4\n      swap3\n      pop\n      pop\n      pop\n      jump\t// out\n        /* \"#utility.yul\":10466:10827   */\n    tag_195:\n        /* \"#utility.yul\":10546:10551   */\n      0x00\n        /* \"#utility.yul\":10595:10598   */\n      dup3\n        /* \"#utility.yul\":10588:10592   */\n      0x1f\n        /* \"#utility.yul\":10580:10586   */\n      dup4\n        /* \"#utility.yul\":10576:10593   */\n      add\n        /* \"#utility.yul\":10572:10599   */\n      slt\n        /* \"#utility.yul\":10562:10684   */\n      tag_331\n      jumpi\n        /* \"#utility.yul\":10603:10682   */\n      tag_332\n      tag_180\n      jump\t// in\n    tag_332:\n        /* \"#utility.yul\":10562:10684   */\n    tag_331:\n        /* \"#utility.yul\":10707:10711   */\n      0x14\n        /* \"#utility.yul\":10729:10821   */\n      tag_333\n        /* \"#utility.yul\":10817:10820   */\n      dup5\n        /* \"#utility.yul\":10809:10815   */\n      dup3\n        /* \"#utility.yul\":10801:10807   */\n      dup6\n        /* \"#utility.yul\":10729:10821   */\n      tag_194\n      jump\t// in\n    tag_333:\n        /* \"#utility.yul\":10720:10821   */\n      swap2\n      pop\n        /* \"#utility.yul\":10552:10827   */\n      pop\n        /* \"#utility.yul\":10466:10827   */\n      swap3\n      swap2\n      pop\n      pop\n      jump\t// out\n        /* \"#utility.yul\":10833:11585   */\n    tag_102:\n        /* \"#utility.yul\":10959:10965   */\n      0x00\n        /* \"#utility.yul\":10967:10973   */\n      dup1\n        /* \"#utility.yul\":11016:11019   */\n      0x02a0\n        /* \"#utility.yul\":11004:11013   */\n      dup4\n        /* \"#utility.yul\":10995:11002   */\n      dup6\n        /* \"#utility.yul\":10991:11014   */\n      sub\n        /* \"#utility.yul\":10987:11020   */\n      slt\n        /* \"#utility.yul\":10984:11104   */\n      iszero\n      tag_335\n      jumpi\n        /* \"#utility.yul\":11023:11102   */\n      tag_336\n      tag_157\n      jump\t// in\n    tag_336:\n        /* \"#utility.yul\":10984:11104   */\n    tag_335:\n        /* \"#utility.yul\":11143:11144   */\n      0x00\n        /* \"#utility.yul\":11168:11245   */\n      tag_337\n        /* \"#utility.yul\":11237:11244   */\n      dup6\n        /* \"#utility.yul\":11228:11234   */\n      dup3\n        /* \"#utility.yul\":11217:11226   */\n      dup7\n        /* \"#utility.yul\":11213:11235   */\n      add\n        /* \"#utility.yul\":11168:11245   */\n      tag_187\n      jump\t// in\n    tag_337:\n        /* \"#utility.yul\":11158:11245   */\n      swap3\n      pop\n        /* \"#utility.yul\":11114:11255   */\n      pop\n        /* \"#utility.yul\":11322:11325   */\n      0x0280\n        /* \"#utility.yul\":11311:11320   */\n      dup4\n        /* \"#utility.yul\":11307:11326   */\n      add\n        /* \"#utility.yul\":11294:11327   */\n      calldataload\n        /* \"#utility.yul\":11354:11372   */\n      0xffffffffffffffff\n        /* \"#utility.yul\":11346:11352   */\n      dup2\n        /* \"#utility.yul\":11343:11373   */\n      gt\n        /* \"#utility.yul\":11340:11457   */\n      iszero\n      tag_338\n      jumpi\n        /* \"#utility.yul\":11376:11455   */\n      tag_339\n      tag_158\n      jump\t// in\n    tag_339:\n        /* \"#utility.yul\":11340:11457   */\n    tag_338:\n        /* \"#utility.yul\":11481:11568   */\n      tag_340\n        /* \"#utility.yul\":11560:11567   */\n      dup6\n        /* \"#utility.yul\":11551:11557   */\n      dup3\n        /* \"#utility.yul\":11540:11549   */\n      dup7\n        /* \"#utility.yul\":11536:11558   */\n      add\n        /* \"#utility.yul\":11481:11568   */\n      tag_195\n      jump\t// in\n    tag_340:\n        /* \"#utility.yul\":11471:11568   */\n      swap2\n      pop\n        /* \"#utility.yul\":11265:11578   */\n      pop\n        /* \"#utility.yul\":10833:11585   */\n      swap3\n      pop\n      swap3\n      swap1\n      pop\n      jump\t// out\n        /* \"#utility.yul\":11591:11651   */\n    tag_196:\n        /* \"#utility.yul\":11619:11622   */\n      0x00\n        /* \"#utility.yul\":11640:11645   */\n      dup2\n        /* \"#utility.yul\":11633:11645   */\n      swap1\n      pop\n        /* \"#utility.yul\":11591:11651   */\n      swap2\n      swap1\n      pop\n      jump\t// out\n        /* \"#utility.yul\":11657:11799   */\n    tag_197:\n        /* \"#utility.yul\":11707:11716   */\n      0x00\n        /* \"#utility.yul\":11740:11793   */\n      tag_343\n        /* \"#utility.yul\":11758:11792   */\n      tag_344\n        /* \"#utility.yul\":11767:11791   */\n      tag_345\n        /* \"#utility.yul\":11785:11790   */\n      dup5\n        /* \"#utility.yul\":11767:11791   */\n      tag_159\n      jump\t// in\n    tag_345:\n        /* \"#utility.yul\":11758:11792   */\n      tag_196\n      jump\t// in\n    tag_344:\n        /* \"#utility.yul\":11740:11793   */\n      tag_159\n      jump\t// in\n    tag_343:\n        /* \"#utility.yul\":11727:11793   */\n      swap1\n      pop\n        /* \"#utility.yul\":11657:11799   */\n      swap2\n      swap1\n      pop\n      jump\t// out\n        /* \"#utility.yul\":11805:11931   */\n    tag_198:\n        /* \"#utility.yul\":11855:11864   */\n      0x00\n        /* \"#utility.yul\":11888:11925   */\n      tag_347\n        /* \"#utility.yul\":11919:11924   */\n      dup3\n        /* \"#utility.yul\":11888:11925   */\n      tag_197\n      jump\t// in\n    tag_347:\n        /* \"#utility.yul\":11875:11925   */\n      swap1\n      pop\n        /* \"#utility.yul\":11805:11931   */\n      swap2\n      swap1\n      pop\n      jump\t// out\n        /* \"#utility.yul\":11937:12088   */\n    tag_199:\n        /* \"#utility.yul\":12012:12021   */\n      0x00\n        /* \"#utility.yul\":12045:12082   */\n      tag_349\n        /* \"#utility.yul\":12076:12081   */\n      dup3\n        /* \"#utility.yul\":12045:12082   */\n      tag_198\n      jump\t// in\n    tag_349:\n        /* \"#utility.yul\":12032:12082   */\n      swap1\n      pop\n        /* \"#utility.yul\":11937:12088   */\n      swap2\n      swap1\n      pop\n      jump\t// out\n        /* \"#utility.yul\":12094:12275   */\n    tag_200:\n        /* \"#utility.yul\":12206:12268   */\n      tag_351\n        /* \"#utility.yul\":12262:12267   */\n      dup2\n        /* \"#utility.yul\":12206:12268   */\n      tag_199\n      jump\t// in\n    tag_351:\n        /* \"#utility.yul\":12201:12204   */\n      dup3\n        /* \"#utility.yul\":12194:12269   */\n      mstore\n        /* \"#utility.yul\":12094:12275   */\n      pop\n      pop\n      jump\t// out\n        /* \"#utility.yul\":12281:12553   */\n    tag_117:\n        /* \"#utility.yul\":12399:12403   */\n      0x00\n        /* \"#utility.yul\":12437:12439   */\n      0x20\n        /* \"#utility.yul\":12426:12435   */\n      dup3\n        /* \"#utility.yul\":12422:12440   */\n      add\n        /* \"#utility.yul\":12414:12440   */\n      swap1\n      pop\n        /* \"#utility.yul\":12450:12546   */\n      tag_353\n        /* \"#utility.yul\":12543:12544   */\n      0x00\n        /* \"#utility.yul\":12532:12541   */\n      dup4\n        /* \"#utility.yul\":12528:12545   */\n      add\n        /* \"#utility.yul\":12519:12525   */\n      dup5\n        /* \"#utility.yul\":12450:12546   */\n      tag_200\n      jump\t// in\n    tag_353:\n        /* \"#utility.yul\":12281:12553   */\n      swap3\n      swap2\n      pop\n      pop\n      jump\t// out\n        /* \"#utility.yul\":12559:12739   */\n    tag_201:\n        /* \"#utility.yul\":12607:12684   */\n      0x4e487b7100000000000000000000000000000000000000000000000000000000\n        /* \"#utility.yul\":12604:12605   */\n      0x00\n        /* \"#utility.yul\":12597:12685   */\n      mstore\n        /* \"#utility.yul\":12704:12708   */\n      0x22\n        /* \"#utility.yul\":12701:12702   */\n      0x04\n        /* \"#utility.yul\":12694:12709   */\n      mstore\n        /* \"#utility.yul\":12728:12732   */\n      0x24\n        /* \"#utility.yul\":12725:12726   */\n      0x00\n        /* \"#utility.yul\":12718:12733   */\n      revert\n        /* \"#utility.yul\":12745:13065   */\n    tag_135:\n        /* \"#utility.yul\":12789:12795   */\n      0x00\n        /* \"#utility.yul\":12826:12827   */\n      0x02\n        /* \"#utility.yul\":12820:12824   */\n      dup3\n        /* \"#utility.yul\":12816:12828   */\n      div\n        /* \"#utility.yul\":12806:12828   */\n      swap1\n      pop\n        /* \"#utility.yul\":12873:12874   */\n      0x01\n        /* \"#utility.yul\":12867:12871   */\n      dup3\n        /* \"#utility.yul\":12863:12875   */\n      and\n        /* \"#utility.yul\":12894:12912   */\n      dup1\n        /* \"#utility.yul\":12884:12965   */\n      tag_356\n      jumpi\n        /* \"#utility.yul\":12950:12954   */\n      0x7f\n        /* \"#utility.yul\":12942:12948   */\n      dup3\n        /* \"#utility.yul\":12938:12955   */\n      and\n        /* \"#utility.yul\":12928:12955   */\n      swap2\n      pop\n        /* \"#utility.yul\":12884:12965   */\n    tag_356:\n        /* \"#utility.yul\":13012:13014   */\n      0x20\n        /* \"#utility.yul\":13004:13010   */\n      dup3\n        /* \"#utility.yul\":13001:13015   */\n      lt\n        /* \"#utility.yul\":12981:12999   */\n      dup2\n        /* \"#utility.yul\":12978:13016   */\n      eq\n        /* \"#utility.yul\":12975:13059   */\n      iszero\n      tag_357\n      jumpi\n        /* \"#utility.yul\":13031:13049   */\n      tag_358\n      tag_201\n      jump\t// in\n    tag_358:\n        /* \"#utility.yul\":12975:13059   */\n    tag_357:\n        /* \"#utility.yul\":12796:13065   */\n      pop\n        /* \"#utility.yul\":12745:13065   */\n      swap2\n      swap1\n      pop\n      jump\t// out\n\n    auxdata: 0xa26469706673582212207386c0796b93c09571cba18e8b4c418c5cb2b28fbd140fabd4dd6755ad3e7ad864736f6c63430008090033\n}\n",
				"bytecode": {
					"linkReferences": {},
					"object": "608060405234801561001057600080fd5b50610e04806100206000396000f3fe6080604052600436106101435760003560e01c8063a6c611d9116100b6578063e22b5dcf1161006f578063e22b5dcf146103ef578063e22ebfd61461042c578063e8b4cb5614610469578063ec65b16e14610480578063f0a47f7814610497578063f4fdbb88146104d45761014a565b8063a6c611d91461032d578063afda5dc514610344578063b32b559f14610381578063ccd64d7d14610398578063d1a2e76e146103af578063df70111f146103d85761014a565b806339119dce1161010857806339119dce1461021d5780633bc40956146102485780637db60caf1461025f5780639201de551461029c57806398f02097146102d95780639f91f516146102f05761014a565b8062a3491a1461014c5780630af78edc1461018957806316f4b99f146101a05780632236d353146101b75780632e64c500146101e05761014a565b3661014a57005b005b34801561015857600080fd5b50610173600480360381019061016e919061074f565b610511565b6040516101809190610815565b60405180910390f35b34801561019557600080fd5b5061019e6105b1565b005b3480156101ac57600080fd5b506101b56105b3565b005b3480156101c357600080fd5b506101de60048036038101906101d99190610875565b6105b5565b005b3480156101ec57600080fd5b50610207600480360381019061020291906108d8565b6105b8565b6040516102149190610933565b60405180910390f35b34801561022957600080fd5b506102326105e7565b60405161023f919061095d565b60405180910390f35b34801561025457600080fd5b5061025d6105ed565b005b34801561026b57600080fd5b506102866004803603810190610281919061074f565b6105ef565b604051610293919061095d565b60405180910390f35b3480156102a857600080fd5b506102c360048036038101906102be91906109ae565b610607565b6040516102d09190610815565b60405180910390f35b3480156102e557600080fd5b506102ee610620565b005b3480156102fc57600080fd5b506103176004803603810190610312919061074f565b610622565b604051610324919061095d565b60405180910390f35b34801561033957600080fd5b50610342610629565b005b34801561035057600080fd5b5061036b6004803603810190610366919061074f565b61062b565b604051610378919061095d565b60405180910390f35b34801561038d57600080fd5b50610396610643565b005b3480156103a457600080fd5b506103ad610645565b005b3480156103bb57600080fd5b506103d660048036038101906103d19190610c95565b610647565b005b3480156103e457600080fd5b506103ed61064b565b005b3480156103fb57600080fd5b506104166004803603810190610411919061074f565b61064d565b6040516104239190610815565b60405180910390f35b34801561043857600080fd5b50610453600480360381019061044e919061074f565b610666565b6040516104609190610d52565b60405180910390f35b34801561047557600080fd5b5061047e610699565b005b34801561048c57600080fd5b5061049561069b565b005b3480156104a357600080fd5b506104be60048036038101906104b9919061074f565b61069d565b6040516104cb9190610933565b60405180910390f35b3480156104e057600080fd5b506104fb60048036038101906104f6919061074f565b6106bd565b6040516105089190610933565b60405180910390f35b6002602052806000526040600020600091509050805461053090610d9c565b80601f016020809104026020016040519081016040528092919081815260200182805461055c90610d9c565b80156105a95780601f1061057e576101008083540402835291602001916105a9565b820191906000526020600020905b81548152906001019060200180831161058c57829003601f168201915b505050505081565b565b565b50565b60046020528160005260406000206020528060005260406000206000915091509054906101000a900460ff1681565b60015481565b565b60036020528060005260406000206000915090505481565b6060604051806020016040528060008152509050919050565b565b6000919050565b565b60066020528060005260406000206000915090505481565b565b565b5050565b565b6060604051806020016040528060008152509050919050565b60056020528060005260406000206000915054906101000a900473ffffffffffffffffffffffffffffffffffffffff1681565b565b565b60006020528060005260406000206000915054906101000a900460ff1681565b60076020528060005260406000206000915054906101000a900460ff1681565b6000604051905090565b600080fd5b600080fd5b600073ffffffffffffffffffffffffffffffffffffffff82169050919050565b600061071c826106f1565b9050919050565b61072c81610711565b811461073757600080fd5b50565b60008135905061074981610723565b92915050565b600060208284031215610765576107646106e7565b5b60006107738482850161073a565b91505092915050565b600081519050919050565b600082825260208201905092915050565b60005b838110156107b657808201518184015260208101905061079b565b838111156107c5576000848401525b50505050565b6000601f19601f8301169050919050565b60006107e78261077c565b6107f18185610787565b9350610801818560208601610798565b61080a816107cb565b840191505092915050565b6000602082019050818103600083015261082f81846107dc565b905092915050565b600061084282610711565b9050919050565b61085281610837565b811461085d57600080fd5b50565b60008135905061086f81610849565b92915050565b60006020828403121561088b5761088a6106e7565b5b600061089984828501610860565b91505092915050565b6000819050919050565b6108b5816108a2565b81146108c057600080fd5b50565b6000813590506108d2816108ac565b92915050565b600080604083850312156108ef576108ee6106e7565b5b60006108fd8582860161073a565b925050602061090e858286016108c3565b9150509250929050565b60008115159050919050565b61092d81610918565b82525050565b60006020820190506109486000830184610924565b92915050565b610957816108a2565b82525050565b6000602082019050610972600083018461094e565b92915050565b6000819050919050565b61098b81610978565b811461099657600080fd5b50565b6000813590506109a881610982565b92915050565b6000602082840312156109c4576109c36106e7565b5b60006109d284828501610999565b91505092915050565b600080fd5b7f4e487b7100000000000000000000000000000000000000000000000000000000600052604160045260246000fd5b610a18826107cb565b810181811067ffffffffffffffff82111715610a3757610a366109e0565b5b80604052505050565b6000610a4a6106dd565b9050610a568282610a0f565b919050565b600067ffffffffffffffff821115610a7657610a756109e0565b5b602082029050919050565b600080fd5b6000610a99610a9484610a5b565b610a40565b90508060208402830185811115610ab357610ab2610a81565b5b835b81811015610adc5780610ac888826108c3565b845260208401935050602081019050610ab5565b5050509392505050565b600082601f830112610afb57610afa6109db565b5b6014610b08848285610a86565b91505092915050565b600067ffffffffffffffff821115610b2c57610b2b6109e0565b5b602082029050919050565b600080fd5b600067ffffffffffffffff821115610b5757610b566109e0565b5b610b60826107cb565b9050602081019050919050565b82818337600083830152505050565b6000610b8f610b8a84610b3c565b610a40565b905082815260208101848484011115610bab57610baa610b37565b5b610bb6848285610b6d565b509392505050565b600082601f830112610bd357610bd26109db565b5b8135610be3848260208601610b7c565b91505092915050565b6000610bff610bfa84610b11565b610a40565b90508060208402830185811115610c1957610c18610a81565b5b835b81811015610c6057803567ffffffffffffffff811115610c3e57610c3d6109db565b5b808601610c4b8982610bbe565b85526020850194505050602081019050610c1b565b5050509392505050565b600082601f830112610c7f57610c7e6109db565b5b6014610c8c848285610bec565b91505092915050565b6000806102a08385031215610cad57610cac6106e7565b5b6000610cbb85828601610ae6565b92505061028083013567ffffffffffffffff811115610cdd57610cdc6106ec565b5b610ce985828601610c6a565b9150509250929050565b6000819050919050565b6000610d18610d13610d0e846106f1565b610cf3565b6106f1565b9050919050565b6000610d2a82610cfd565b9050919050565b6000610d3c82610d1f565b9050919050565b610d4c81610d31565b82525050565b6000602082019050610d676000830184610d43565b92915050565b7f4e487b7100000000000000000000000000000000000000000000000000000000600052602260045260246000fd5b60006002820490506001821680610db457607f821691505b60208210811415610dc857610dc7610d6d565b5b5091905056fea26469706673582212207386c0796b93c09571cba18e8b4c418c5cb2b28fbd140fabd4dd6755ad3e7ad864736f6c63430008090033",
					"opcodes": "PUSH1 0x80 PUSH1 0x40 MSTORE CALLVALUE DUP1 ISZERO PUSH2 0x10 JUMPI PUSH1 0x0 DUP1 REVERT JUMPDEST POP PUSH2 0xE04 DUP1 PUSH2 0x20 PUSH1 0x0 CODECOPY PUSH1 0x0 RETURN INVALID PUSH1 0x80 PUSH1 0x40 MSTORE PUSH1 0x4 CALLDATASIZE LT PUSH2 0x143 JUMPI PUSH1 0x0 CALLDATALOAD PUSH1 0xE0 SHR DUP1 PUSH4 0xA6C611D9 GT PUSH2 0xB6 JUMPI DUP1 PUSH4 0xE22B5DCF GT PUSH2 0x6F JUMPI DUP1 PUSH4 0xE22B5DCF EQ PUSH2 0x3EF JUMPI DUP1 PUSH4 0xE22EBFD6 EQ PUSH2 0x42C JUMPI DUP1 PUSH4 0xE8B4CB56 EQ PUSH2 0x469 JUMPI DUP1 PUSH4 0xEC65B16E EQ PUSH2 0x480 JUMPI DUP1 PUSH4 0xF0A47F78 EQ PUSH2 0x497 JUMPI DUP1 PUSH4 0xF4FDBB88 EQ PUSH2 0x4D4 JUMPI PUSH2 0x14A JUMP JUMPDEST DUP1 PUSH4 0xA6C611D9 EQ PUSH2 0x32D JUMPI DUP1 PUSH4 0xAFDA5DC5 EQ PUSH2 0x344 JUMPI DUP1 PUSH4 0xB32B559F EQ PUSH2 0x381 JUMPI DUP1 PUSH4 0xCCD64D7D EQ PUSH2 0x398 JUMPI DUP1 PUSH4 0xD1A2E76E EQ PUSH2 0x3AF JUMPI DUP1 PUSH4 0xDF70111F EQ PUSH2 0x3D8 JUMPI PUSH2 0x14A JUMP JUMPDEST DUP1 PUSH4 0x39119DCE GT PUSH2 0x108 JUMPI DUP1 PUSH4 0x39119DCE EQ PUSH2 0x21D JUMPI DUP1 PUSH4 0x3BC40956 EQ PUSH2 0x248 JUMPI DUP1 PUSH4 0x7DB60CAF EQ PUSH2 0x25F JUMPI DUP1 PUSH4 0x9201DE55 EQ PUSH2 0x29C JUMPI DUP1 PUSH4 0x98F02097 EQ PUSH2 0x2D9 JUMPI DUP1 PUSH4 0x9F91F516 EQ PUSH2 0x2F0 JUMPI PUSH2 0x14A JUMP JUMPDEST DUP1 PUSH3 0xA3491A EQ PUSH2 0x14C JUMPI DUP1 PUSH4 0xAF78EDC EQ PUSH2 0x189 JUMPI DUP1 PUSH4 0x16F4B99F EQ PUSH2 0x1A0 JUMPI DUP1 PUSH4 0x2236D353 EQ PUSH2 0x1B7 JUMPI DUP1 PUSH4 0x2E64C500 EQ PUSH2 0x1E0 JUMPI PUSH2 0x14A JUMP JUMPDEST CALLDATASIZE PUSH2 0x14A JUMPI STOP JUMPDEST STOP JUMPDEST CALLVALUE DUP1 ISZERO PUSH2 0x158 JUMPI PUSH1 0x0 DUP1 REVERT JUMPDEST POP PUSH2 0x173 PUSH1 0x4 DUP1 CALLDATASIZE SUB DUP2 ADD SWAP1 PUSH2 0x16E SWAP2 SWAP1 PUSH2 0x74F JUMP JUMPDEST PUSH2 0x511 JUMP JUMPDEST PUSH1 0x40 MLOAD PUSH2 0x180 SWAP2 SWAP1 PUSH2 0x815 JUMP JUMPDEST PUSH1 0x40 MLOAD DUP1 SWAP2 SUB SWAP1 RETURN JUMPDEST CALLVALUE DUP1 ISZERO PUSH2 0x195 JUMPI PUSH1 0x0 DUP1 REVERT JUMPDEST POP PUSH2 0x19E PUSH2 0x5B1 JUMP JUMPDEST STOP JUMPDEST CALLVALUE DUP1 ISZERO PUSH2 0x1AC JUMPI PUSH1 0x0 DUP1 REVERT JUMPDEST POP PUSH2 0x1B5 PUSH2 0x5B3 JUMP JUMPDEST STOP JUMPDEST CALLVALUE DUP1 ISZERO PUSH2 0x1C3 JUMPI PUSH1 0x0 DUP1 REVERT JUMPDEST POP PUSH2 0x1DE PUSH1 0x4 DUP1 CALLDATASIZE SUB DUP2 ADD SWAP1 PUSH2 0x1D9 SWAP2 SWAP1 PUSH2 0x875 JUMP JUMPDEST PUSH2 0x5B5 JUMP JUMPDEST STOP JUMPDEST CALLVALUE DUP1 ISZERO PUSH2 0x1EC JUMPI PUSH1 0x0 DUP1 REVERT JUMPDEST POP PUSH2 0x207 PUSH1 0x4 DUP1 CALLDATASIZE SUB DUP2 ADD SWAP1 PUSH2 0x202 SWAP2 SWAP1 PUSH2 0x8D8 JUMP JUMPDEST PUSH2 0x5B8 JUMP JUMPDEST PUSH1 0x40 MLOAD PUSH2 0x214 SWAP2 SWAP1 PUSH2 0x933 JUMP JUMPDEST PUSH1 0x40 MLOAD DUP1 SWAP2 SUB SWAP1 RETURN JUMPDEST CALLVALUE DUP1 ISZERO PUSH2 0x229 JUMPI PUSH1 0x0 DUP1 REVERT JUMPDEST POP PUSH2 0x232 PUSH2 0x5E7 JUMP JUMPDEST PUSH1 0x40 MLOAD PUSH2 0x23F SWAP2 SWAP1 PUSH2 0x95D JUMP JUMPDEST PUSH1 0x40 MLOAD DUP1 SWAP2 SUB SWAP1 RETURN JUMPDEST CALLVALUE DUP1 ISZERO PUSH2 0x254 JUMPI PUSH1 0x0 DUP1 REVERT JUMPDEST POP PUSH2 0x25D PUSH2 0x5ED JUMP JUMPDEST STOP JUMPDEST CALLVALUE DUP1 ISZERO PUSH2 0x26B JUMPI PUSH1 0x0 DUP1 REVERT JUMPDEST POP PUSH2 0x286 PUSH1 0x4 DUP1 CALLDATASIZE SUB DUP2 ADD SWAP1 PUSH2 0x281 SWAP2 SWAP1 PUSH2 0x74F JUMP JUMPDEST PUSH2 0x5EF JUMP JUMPDEST PUSH1 0x40 MLOAD PUSH2 0x293 SWAP2 SWAP1 PUSH2 0x95D JUMP JUMPDEST PUSH1 0x40 MLOAD DUP1 SWAP2 SUB SWAP1 RETURN JUMPDEST CALLVALUE DUP1 ISZERO PUSH2 0x2A8 JUMPI PUSH1 0x0 DUP1 REVERT JUMPDEST POP PUSH2 0x2C3 PUSH1 0x4 DUP1 CALLDATASIZE SUB DUP2 ADD SWAP1 PUSH2 0x2BE SWAP2 SWAP1 PUSH2 0x9AE JUMP JUMPDEST PUSH2 0x607 JUMP JUMPDEST PUSH1 0x40 MLOAD PUSH2 0x2D0 SWAP2 SWAP1 PUSH2 0x815 JUMP JUMPDEST PUSH1 0x40 MLOAD DUP1 SWAP2 SUB SWAP1 RETURN JUMPDEST CALLVALUE DUP1 ISZERO PUSH2 0x2E5 JUMPI PUSH1 0x0 DUP1 REVERT JUMPDEST POP PUSH2 0x2EE PUSH2 0x620 JUMP JUMPDEST STOP JUMPDEST CALLVALUE DUP1 ISZERO PUSH2 0x2FC JUMPI PUSH1 0x0 DUP1 REVERT JUMPDEST POP PUSH2 0x317 PUSH1 0x4 DUP1 CALLDATASIZE SUB DUP2 ADD SWAP1 PUSH2 0x312 SWAP2 SWAP1 PUSH2 0x74F JUMP JUMPDEST PUSH2 0x622 JUMP JUMPDEST PUSH1 0x40 MLOAD PUSH2 0x324 SWAP2 SWAP1 PUSH2 0x95D JUMP JUMPDEST PUSH1 0x40 MLOAD DUP1 SWAP2 SUB SWAP1 RETURN JUMPDEST CALLVALUE DUP1 ISZERO PUSH2 0x339 JUMPI PUSH1 0x0 DUP1 REVERT JUMPDEST POP PUSH2 0x342 PUSH2 0x629 JUMP JUMPDEST STOP JUMPDEST CALLVALUE DUP1 ISZERO PUSH2 0x350 JUMPI PUSH1 0x0 DUP1 REVERT JUMPDEST POP PUSH2 0x36B PUSH1 0x4 DUP1 CALLDATASIZE SUB DUP2 ADD SWAP1 PUSH2 0x366 SWAP2 SWAP1 PUSH2 0x74F JUMP JUMPDEST PUSH2 0x62B JUMP JUMPDEST PUSH1 0x40 MLOAD PUSH2 0x378 SWAP2 SWAP1 PUSH2 0x95D JUMP JUMPDEST PUSH1 0x40 MLOAD DUP1 SWAP2 SUB SWAP1 RETURN JUMPDEST CALLVALUE DUP1 ISZERO PUSH2 0x38D JUMPI PUSH1 0x0 DUP1 REVERT JUMPDEST POP PUSH2 0x396 PUSH2 0x643 JUMP JUMPDEST STOP JUMPDEST CALLVALUE DUP1 ISZERO PUSH2 0x3A4 JUMPI PUSH1 0x0 DUP1 REVERT JUMPDEST POP PUSH2 0x3AD PUSH2 0x645 JUMP JUMPDEST STOP JUMPDEST CALLVALUE DUP1 ISZERO PUSH2 0x3BB JUMPI PUSH1 0x0 DUP1 REVERT JUMPDEST POP PUSH2 0x3D6 PUSH1 0x4 DUP1 CALLDATASIZE SUB DUP2 ADD SWAP1 PUSH2 0x3D1 SWAP2 SWAP1 PUSH2 0xC95 JUMP JUMPDEST PUSH2 0x647 JUMP JUMPDEST STOP JUMPDEST CALLVALUE DUP1 ISZERO PUSH2 0x3E4 JUMPI PUSH1 0x0 DUP1 REVERT JUMPDEST POP PUSH2 0x3ED PUSH2 0x64B JUMP JUMPDEST STOP JUMPDEST CALLVALUE DUP1 ISZERO PUSH2 0x3FB JUMPI PUSH1 0x0 DUP1 REVERT JUMPDEST POP PUSH2 0x416 PUSH1 0x4 DUP1 CALLDATASIZE SUB DUP2 ADD SWAP1 PUSH2 0x411 SWAP2 SWAP1 PUSH2 0x74F JUMP JUMPDEST PUSH2 0x64D JUMP JUMPDEST PUSH1 0x40 MLOAD PUSH2 0x423 SWAP2 SWAP1 PUSH2 0x815 JUMP JUMPDEST PUSH1 0x40 MLOAD DUP1 SWAP2 SUB SWAP1 RETURN JUMPDEST CALLVALUE DUP1 ISZERO PUSH2 0x438 JUMPI PUSH1 0x0 DUP1 REVERT JUMPDEST POP PUSH2 0x453 PUSH1 0x4 DUP1 CALLDATASIZE SUB DUP2 ADD SWAP1 PUSH2 0x44E SWAP2 SWAP1 PUSH2 0x74F JUMP JUMPDEST PUSH2 0x666 JUMP JUMPDEST PUSH1 0x40 MLOAD PUSH2 0x460 SWAP2 SWAP1 PUSH2 0xD52 JUMP JUMPDEST PUSH1 0x40 MLOAD DUP1 SWAP2 SUB SWAP1 RETURN JUMPDEST CALLVALUE DUP1 ISZERO PUSH2 0x475 JUMPI PUSH1 0x0 DUP1 REVERT JUMPDEST POP PUSH2 0x47E PUSH2 0x699 JUMP JUMPDEST STOP JUMPDEST CALLVALUE DUP1 ISZERO PUSH2 0x48C JUMPI PUSH1 0x0 DUP1 REVERT JUMPDEST POP PUSH2 0x495 PUSH2 0x69B JUMP JUMPDEST STOP JUMPDEST CALLVALUE DUP1 ISZERO PUSH2 0x4A3 JUMPI PUSH1 0x0 DUP1 REVERT JUMPDEST POP PUSH2 0x4BE PUSH1 0x4 DUP1 CALLDATASIZE SUB DUP2 ADD SWAP1 PUSH2 0x4B9 SWAP2 SWAP1 PUSH2 0x74F JUMP JUMPDEST PUSH2 0x69D JUMP JUMPDEST PUSH1 0x40 MLOAD PUSH2 0x4CB SWAP2 SWAP1 PUSH2 0x933 JUMP JUMPDEST PUSH1 0x40 MLOAD DUP1 SWAP2 SUB SWAP1 RETURN JUMPDEST CALLVALUE DUP1 ISZERO PUSH2 0x4E0 JUMPI PUSH1 0x0 DUP1 REVERT JUMPDEST POP PUSH2 0x4FB PUSH1 0x4 DUP1 CALLDATASIZE SUB DUP2 ADD SWAP1 PUSH2 0x4F6 SWAP2 SWAP1 PUSH2 0x74F JUMP JUMPDEST PUSH2 0x6BD JUMP JUMPDEST PUSH1 0x40 MLOAD PUSH2 0x508 SWAP2 SWAP1 PUSH2 0x933 JUMP JUMPDEST PUSH1 0x40 MLOAD DUP1 SWAP2 SUB SWAP1 RETURN JUMPDEST PUSH1 0x2 PUSH1 0x20 MSTORE DUP1 PUSH1 0x0 MSTORE PUSH1 0x40 PUSH1 0x0 KECCAK256 PUSH1 0x0 SWAP2 POP SWAP1 POP DUP1 SLOAD PUSH2 0x530 SWAP1 PUSH2 0xD9C JUMP JUMPDEST DUP1 PUSH1 0x1F ADD PUSH1 0x20 DUP1 SWAP2 DIV MUL PUSH1 0x20 ADD PUSH1 0x40 MLOAD SWAP1 DUP2 ADD PUSH1 0x40 MSTORE DUP1 SWAP3 SWAP2 SWAP1 DUP2 DUP2 MSTORE PUSH1 0x20 ADD DUP3 DUP1 SLOAD PUSH2 0x55C SWAP1 PUSH2 0xD9C JUMP JUMPDEST DUP1 ISZERO PUSH2 0x5A9 JUMPI DUP1 PUSH1 0x1F LT PUSH2 0x57E JUMPI PUSH2 0x100 DUP1 DUP4 SLOAD DIV MUL DUP4 MSTORE SWAP2 PUSH1 0x20 ADD SWAP2 PUSH2 0x5A9 JUMP JUMPDEST DUP3 ADD SWAP2 SWAP1 PUSH1 0x0 MSTORE PUSH1 0x20 PUSH1 0x0 KECCAK256 SWAP1 JUMPDEST DUP2 SLOAD DUP2 MSTORE SWAP1 PUSH1 0x1 ADD SWAP1 PUSH1 0x20 ADD DUP1 DUP4 GT PUSH2 0x58C JUMPI DUP3 SWAP1 SUB PUSH1 0x1F AND DUP3 ADD SWAP2 JUMPDEST POP POP POP POP POP DUP2 JUMP JUMPDEST JUMP JUMPDEST JUMP JUMPDEST POP JUMP JUMPDEST PUSH1 0x4 PUSH1 0x20 MSTORE DUP2 PUSH1 0x0 MSTORE PUSH1 0x40 PUSH1 0x0 KECCAK256 PUSH1 0x20 MSTORE DUP1 PUSH1 0x0 MSTORE PUSH1 0x40 PUSH1 0x0 KECCAK256 PUSH1 0x0 SWAP2 POP SWAP2 POP SWAP1 SLOAD SWAP1 PUSH2 0x100 EXP SWAP1 DIV PUSH1 0xFF AND DUP2 JUMP JUMPDEST PUSH1 0x1 SLOAD DUP2 JUMP JUMPDEST JUMP JUMPDEST PUSH1 0x3 PUSH1 0x20 MSTORE DUP1 PUSH1 0x0 MSTORE PUSH1 0x40 PUSH1 0x0 KECCAK256 PUSH1 0x0 SWAP2 POP SWAP1 POP SLOAD DUP2 JUMP JUMPDEST PUSH1 0x60 PUSH1 0x40 MLOAD DUP1 PUSH1 0x20 ADD PUSH1 0x40 MSTORE DUP1 PUSH1 0x0 DUP2 MSTORE POP SWAP1 POP SWAP2 SWAP1 POP JUMP JUMPDEST JUMP JUMPDEST PUSH1 0x0 SWAP2 SWAP1 POP JUMP JUMPDEST JUMP JUMPDEST PUSH1 0x6 PUSH1 0x20 MSTORE DUP1 PUSH1 0x0 MSTORE PUSH1 0x40 PUSH1 0x0 KECCAK256 PUSH1 0x0 SWAP2 POP SWAP1 POP SLOAD DUP2 JUMP JUMPDEST JUMP JUMPDEST JUMP JUMPDEST POP POP JUMP JUMPDEST JUMP JUMPDEST PUSH1 0x60 PUSH1 0x40 MLOAD DUP1 PUSH1 0x20 ADD PUSH1 0x40 MSTORE DUP1 PUSH1 0x0 DUP2 MSTORE POP SWAP1 POP SWAP2 SWAP1 POP JUMP JUMPDEST PUSH1 0x5 PUSH1 0x20 MSTORE DUP1 PUSH1 0x0 MSTORE PUSH1 0x40 PUSH1 0x0 KECCAK256 PUSH1 0x0 SWAP2 POP SLOAD SWAP1 PUSH2 0x100 EXP SWAP1 DIV PUSH20 0xFFFFFFFFFFFFFFFFFFFFFFFFFFFFFFFFFFFFFFFF AND DUP2 JUMP JUMPDEST JUMP JUMPDEST JUMP JUMPDEST PUSH1 0x0 PUSH1 0x20 MSTORE DUP1 PUSH1 0x0 MSTORE PUSH1 0x40 PUSH1 0x0 KECCAK256 PUSH1 0x0 SWAP2 POP SLOAD SWAP1 PUSH2 0x100 EXP SWAP1 DIV PUSH1 0xFF AND DUP2 JUMP JUMPDEST PUSH1 0x7 PUSH1 0x20 MSTORE DUP1 PUSH1 0x0 MSTORE PUSH1 0x40 PUSH1 0x0 KECCAK256 PUSH1 0x0 SWAP2 POP SLOAD SWAP1 PUSH2 0x100 EXP SWAP1 DIV PUSH1 0xFF AND DUP2 JUMP JUMPDEST PUSH1 0x0 PUSH1 0x40 MLOAD SWAP1 POP SWAP1 JUMP JUMPDEST PUSH1 0x0 DUP1 REVERT JUMPDEST PUSH1 0x0 DUP1 REVERT JUMPDEST PUSH1 0x0 PUSH20 0xFFFFFFFFFFFFFFFFFFFFFFFFFFFFFFFFFFFFFFFF DUP3 AND SWAP1 POP SWAP2 SWAP1 POP JUMP JUMPDEST PUSH1 0x0 PUSH2 0x71C DUP3 PUSH2 0x6F1 JUMP JUMPDEST SWAP1 POP SWAP2 SWAP1 POP JUMP JUMPDEST PUSH2 0x72C DUP2 PUSH2 0x711 JUMP JUMPDEST DUP2 EQ PUSH2 0x737 JUMPI PUSH1 0x0 DUP1 REVERT JUMPDEST POP JUMP JUMPDEST PUSH1 0x0 DUP2 CALLDATALOAD SWAP1 POP PUSH2 0x749 DUP2 PUSH2 0x723 JUMP JUMPDEST SWAP3 SWAP2 POP POP JUMP JUMPDEST PUSH1 0x0 PUSH1 0x20 DUP3 DUP5 SUB SLT ISZERO PUSH2 0x765 JUMPI PUSH2 0x764 PUSH2 0x6E7 JUMP JUMPDEST JUMPDEST PUSH1 0x0 PUSH2 0x773 DUP5 DUP3 DUP6 ADD PUSH2 0x73A JUMP JUMPDEST SWAP2 POP POP SWAP3 SWAP2 POP POP JUMP JUMPDEST PUSH1 0x0 DUP2 MLOAD SWAP1 POP SWAP2 SWAP1 POP JUMP JUMPDEST PUSH1 0x0 DUP3 DUP3 MSTORE PUSH1 0x20 DUP3 ADD SWAP1 POP SWAP3 SWAP2 POP POP JUMP JUMPDEST PUSH1 0x0 JUMPDEST DUP4 DUP2 LT ISZERO PUSH2 0x7B6 JUMPI DUP1 DUP3 ADD MLOAD DUP2 DUP5 ADD MSTORE PUSH1 0x20 DUP2 ADD SWAP1 POP PUSH2 0x79B JUMP JUMPDEST DUP4 DUP2 GT ISZERO PUSH2 0x7C5 JUMPI PUSH1 0x0 DUP5 DUP5 ADD MSTORE JUMPDEST POP POP POP POP JUMP JUMPDEST PUSH1 0x0 PUSH1 0x1F NOT PUSH1 0x1F DUP4 ADD AND SWAP1 POP SWAP2 SWAP1 POP JUMP JUMPDEST PUSH1 0x0 PUSH2 0x7E7 DUP3 PUSH2 0x77C JUMP JUMPDEST PUSH2 0x7F1 DUP2 DUP6 PUSH2 0x787 JUMP JUMPDEST SWAP4 POP PUSH2 0x801 DUP2 DUP6 PUSH1 0x20 DUP7 ADD PUSH2 0x798 JUMP JUMPDEST PUSH2 0x80A DUP2 PUSH2 0x7CB JUMP JUMPDEST DUP5 ADD SWAP2 POP POP SWAP3 SWAP2 POP POP JUMP JUMPDEST PUSH1 0x0 PUSH1 0x20 DUP3 ADD SWAP1 POP DUP2 DUP2 SUB PUSH1 0x0 DUP4 ADD MSTORE PUSH2 0x82F DUP2 DUP5 PUSH2 0x7DC JUMP JUMPDEST SWAP1 POP SWAP3 SWAP2 POP POP JUMP JUMPDEST PUSH1 0x0 PUSH2 0x842 DUP3 PUSH2 0x711 JUMP JUMPDEST SWAP1 POP SWAP2 SWAP1 POP JUMP JUMPDEST PUSH2 0x852 DUP2 PUSH2 0x837 JUMP JUMPDEST DUP2 EQ PUSH2 0x85D JUMPI PUSH1 0x0 DUP1 REVERT JUMPDEST POP JUMP JUMPDEST PUSH1 0x0 DUP2 CALLDATALOAD SWAP1 POP PUSH2 0x86F DUP2 PUSH2 0x849 JUMP JUMPDEST SWAP3 SWAP2 POP POP JUMP JUMPDEST PUSH1 0x0 PUSH1 0x20 DUP3 DUP5 SUB SLT ISZERO PUSH2 0x88B JUMPI PUSH2 0x88A PUSH2 0x6E7 JUMP JUMPDEST JUMPDEST PUSH1 0x0 PUSH2 0x899 DUP5 DUP3 DUP6 ADD PUSH2 0x860 JUMP JUMPDEST SWAP2 POP POP SWAP3 SWAP2 POP POP JUMP JUMPDEST PUSH1 0x0 DUP2 SWAP1 POP SWAP2 SWAP1 POP JUMP JUMPDEST PUSH2 0x8B5 DUP2 PUSH2 0x8A2 JUMP JUMPDEST DUP2 EQ PUSH2 0x8C0 JUMPI PUSH1 0x0 DUP1 REVERT JUMPDEST POP JUMP JUMPDEST PUSH1 0x0 DUP2 CALLDATALOAD SWAP1 POP PUSH2 0x8D2 DUP2 PUSH2 0x8AC JUMP JUMPDEST SWAP3 SWAP2 POP POP JUMP JUMPDEST PUSH1 0x0 DUP1 PUSH1 0x40 DUP4 DUP6 SUB SLT ISZERO PUSH2 0x8EF JUMPI PUSH2 0x8EE PUSH2 0x6E7 JUMP JUMPDEST JUMPDEST PUSH1 0x0 PUSH2 0x8FD DUP6 DUP3 DUP7 ADD PUSH2 0x73A JUMP JUMPDEST SWAP3 POP POP PUSH1 0x20 PUSH2 0x90E DUP6 DUP3 DUP7 ADD PUSH2 0x8C3 JUMP JUMPDEST SWAP2 POP POP SWAP3 POP SWAP3 SWAP1 POP JUMP JUMPDEST PUSH1 0x0 DUP2 ISZERO ISZERO SWAP1 POP SWAP2 SWAP1 POP JUMP JUMPDEST PUSH2 0x92D DUP2 PUSH2 0x918 JUMP JUMPDEST DUP3 MSTORE POP POP JUMP JUMPDEST PUSH1 0x0 PUSH1 0x20 DUP3 ADD SWAP1 POP PUSH2 0x948 PUSH1 0x0 DUP4 ADD DUP5 PUSH2 0x924 JUMP JUMPDEST SWAP3 SWAP2 POP POP JUMP JUMPDEST PUSH2 0x957 DUP2 PUSH2 0x8A2 JUMP JUMPDEST DUP3 MSTORE POP POP JUMP JUMPDEST PUSH1 0x0 PUSH1 0x20 DUP3 ADD SWAP1 POP PUSH2 0x972 PUSH1 0x0 DUP4 ADD DUP5 PUSH2 0x94E JUMP JUMPDEST SWAP3 SWAP2 POP POP JUMP JUMPDEST PUSH1 0x0 DUP2 SWAP1 POP SWAP2 SWAP1 POP JUMP JUMPDEST PUSH2 0x98B DUP2 PUSH2 0x978 JUMP JUMPDEST DUP2 EQ PUSH2 0x996 JUMPI PUSH1 0x0 DUP1 REVERT JUMPDEST POP JUMP JUMPDEST PUSH1 0x0 DUP2 CALLDATALOAD SWAP1 POP PUSH2 0x9A8 DUP2 PUSH2 0x982 JUMP JUMPDEST SWAP3 SWAP2 POP POP JUMP JUMPDEST PUSH1 0x0 PUSH1 0x20 DUP3 DUP5 SUB SLT ISZERO PUSH2 0x9C4 JUMPI PUSH2 0x9C3 PUSH2 0x6E7 JUMP JUMPDEST JUMPDEST PUSH1 0x0 PUSH2 0x9D2 DUP5 DUP3 DUP6 ADD PUSH2 0x999 JUMP JUMPDEST SWAP2 POP POP SWAP3 SWAP2 POP POP JUMP JUMPDEST PUSH1 0x0 DUP1 REVERT JUMPDEST PUSH32 0x4E487B7100000000000000000000000000000000000000000000000000000000 PUSH1 0x0 MSTORE PUSH1 0x41 PUSH1 0x4 MSTORE PUSH1 0x24 PUSH1 0x0 REVERT JUMPDEST PUSH2 0xA18 DUP3 PUSH2 0x7CB JUMP JUMPDEST DUP2 ADD DUP2 DUP2 LT PUSH8 0xFFFFFFFFFFFFFFFF DUP3 GT OR ISZERO PUSH2 0xA37 JUMPI PUSH2 0xA36 PUSH2 0x9E0 JUMP JUMPDEST JUMPDEST DUP1 PUSH1 0x40 MSTORE POP POP POP JUMP JUMPDEST PUSH1 0x0 PUSH2 0xA4A PUSH2 0x6DD JUMP JUMPDEST SWAP1 POP PUSH2 0xA56 DUP3 DUP3 PUSH2 0xA0F JUMP JUMPDEST SWAP2 SWAP1 POP JUMP JUMPDEST PUSH1 0x0 PUSH8 0xFFFFFFFFFFFFFFFF DUP3 GT ISZERO PUSH2 0xA76 JUMPI PUSH2 0xA75 PUSH2 0x9E0 JUMP JUMPDEST JUMPDEST PUSH1 0x20 DUP3 MUL SWAP1 POP SWAP2 SWAP1 POP JUMP JUMPDEST PUSH1 0x0 DUP1 REVERT JUMPDEST PUSH1 0x0 PUSH2 0xA99 PUSH2 0xA94 DUP5 PUSH2 0xA5B JUMP JUMPDEST PUSH2 0xA40 JUMP JUMPDEST SWAP1 POP DUP1 PUSH1 0x20 DUP5 MUL DUP4 ADD DUP6 DUP2 GT ISZERO PUSH2 0xAB3 JUMPI PUSH2 0xAB2 PUSH2 0xA81 JUMP JUMPDEST JUMPDEST DUP4 JUMPDEST DUP2 DUP2 LT ISZERO PUSH2 0xADC JUMPI DUP1 PUSH2 0xAC8 DUP9 DUP3 PUSH2 0x8C3 JUMP JUMPDEST DUP5 MSTORE PUSH1 0x20 DUP5 ADD SWAP4 POP POP PUSH1 0x20 DUP2 ADD SWAP1 POP PUSH2 0xAB5 JUMP JUMPDEST POP POP POP SWAP4 SWAP3 POP POP POP JUMP JUMPDEST PUSH1 0x0 DUP3 PUSH1 0x1F DUP4 ADD SLT PUSH2 0xAFB JUMPI PUSH2 0xAFA PUSH2 0x9DB JUMP JUMPDEST JUMPDEST PUSH1 0x14 PUSH2 0xB08 DUP5 DUP3 DUP6 PUSH2 0xA86 JUMP JUMPDEST SWAP2 POP POP SWAP3 SWAP2 POP POP JUMP JUMPDEST PUSH1 0x0 PUSH8 0xFFFFFFFFFFFFFFFF DUP3 GT ISZERO PUSH2 0xB2C JUMPI PUSH2 0xB2B PUSH2 0x9E0 JUMP JUMPDEST JUMPDEST PUSH1 0x20 DUP3 MUL SWAP1 POP SWAP2 SWAP1 POP JUMP JUMPDEST PUSH1 0x0 DUP1 REVERT JUMPDEST PUSH1 0x0 PUSH8 0xFFFFFFFFFFFFFFFF DUP3 GT ISZERO PUSH2 0xB57 JUMPI PUSH2 0xB56 PUSH2 0x9E0 JUMP JUMPDEST JUMPDEST PUSH2 0xB60 DUP3 PUSH2 0x7CB JUMP JUMPDEST SWAP1 POP PUSH1 0x20 DUP2 ADD SWAP1 POP SWAP2 SWAP1 POP JUMP JUMPDEST DUP3 DUP2 DUP4 CALLDATACOPY PUSH1 0x0 DUP4 DUP4 ADD MSTORE POP POP POP JUMP JUMPDEST PUSH1 0x0 PUSH2 0xB8F PUSH2 0xB8A DUP5 PUSH2 0xB3C JUMP JUMPDEST PUSH2 0xA40 JUMP JUMPDEST SWAP1 POP DUP3 DUP2 MSTORE PUSH1 0x20 DUP2 ADD DUP5 DUP5 DUP5 ADD GT ISZERO PUSH2 0xBAB JUMPI PUSH2 0xBAA PUSH2 0xB37 JUMP JUMPDEST JUMPDEST PUSH2 0xBB6 DUP5 DUP3 DUP6 PUSH2 0xB6D JUMP JUMPDEST POP SWAP4 SWAP3 POP POP POP JUMP JUMPDEST PUSH1 0x0 DUP3 PUSH1 0x1F DUP4 ADD SLT PUSH2 0xBD3 JUMPI PUSH2 0xBD2 PUSH2 0x9DB JUMP JUMPDEST JUMPDEST DUP2 CALLDATALOAD PUSH2 0xBE3 DUP5 DUP3 PUSH1 0x20 DUP7 ADD PUSH2 0xB7C JUMP JUMPDEST SWAP2 POP POP SWAP3 SWAP2 POP POP JUMP JUMPDEST PUSH1 0x0 PUSH2 0xBFF PUSH2 0xBFA DUP5 PUSH2 0xB11 JUMP JUMPDEST PUSH2 0xA40 JUMP JUMPDEST SWAP1 POP DUP1 PUSH1 0x20 DUP5 MUL DUP4 ADD DUP6 DUP2 GT ISZERO PUSH2 0xC19 JUMPI PUSH2 0xC18 PUSH2 0xA81 JUMP JUMPDEST JUMPDEST DUP4 JUMPDEST DUP2 DUP2 LT ISZERO PUSH2 0xC60 JUMPI DUP1 CALLDATALOAD PUSH8 0xFFFFFFFFFFFFFFFF DUP2 GT ISZERO PUSH2 0xC3E JUMPI PUSH2 0xC3D PUSH2 0x9DB JUMP JUMPDEST JUMPDEST DUP1 DUP7 ADD PUSH2 0xC4B DUP10 DUP3 PUSH2 0xBBE JUMP JUMPDEST DUP6 MSTORE PUSH1 0x20 DUP6 ADD SWAP5 POP POP POP PUSH1 0x20 DUP2 ADD SWAP1 POP PUSH2 0xC1B JUMP JUMPDEST POP POP POP SWAP4 SWAP3 POP POP POP JUMP JUMPDEST PUSH1 0x0 DUP3 PUSH1 0x1F DUP4 ADD SLT PUSH2 0xC7F JUMPI PUSH2 0xC7E PUSH2 0x9DB JUMP JUMPDEST JUMPDEST PUSH1 0x14 PUSH2 0xC8C DUP5 DUP3 DUP6 PUSH2 0xBEC JUMP JUMPDEST SWAP2 POP POP SWAP3 SWAP2 POP POP JUMP JUMPDEST PUSH1 0x0 DUP1 PUSH2 0x2A0 DUP4 DUP6 SUB SLT ISZERO PUSH2 0xCAD JUMPI PUSH2 0xCAC PUSH2 0x6E7 JUMP JUMPDEST JUMPDEST PUSH1 0x0 PUSH2 0xCBB DUP6 DUP3 DUP7 ADD PUSH2 0xAE6 JUMP JUMPDEST SWAP3 POP POP PUSH2 0x280 DUP4 ADD CALLDATALOAD PUSH8 0xFFFFFFFFFFFFFFFF DUP2 GT ISZERO PUSH2 0xCDD JUMPI PUSH2 0xCDC PUSH2 0x6EC JUMP JUMPDEST JUMPDEST PUSH2 0xCE9 DUP6 DUP3 DUP7 ADD PUSH2 0xC6A JUMP JUMPDEST SWAP2 POP POP SWAP3 POP SWAP3 SWAP1 POP JUMP JUMPDEST PUSH1 0x0 DUP2 SWAP1 POP SWAP2 SWAP1 POP JUMP JUMPDEST PUSH1 0x0 PUSH2 0xD18 PUSH2 0xD13 PUSH2 0xD0E DUP5 PUSH2 0x6F1 JUMP JUMPDEST PUSH2 0xCF3 JUMP JUMPDEST PUSH2 0x6F1 JUMP JUMPDEST SWAP1 POP SWAP2 SWAP1 POP JUMP JUMPDEST PUSH1 0x0 PUSH2 0xD2A DUP3 PUSH2 0xCFD JUMP JUMPDEST SWAP1 POP SWAP2 SWAP1 POP JUMP JUMPDEST PUSH1 0x0 PUSH2 0xD3C DUP3 PUSH2 0xD1F JUMP JUMPDEST SWAP1 POP SWAP2 SWAP1 POP JUMP JUMPDEST PUSH2 0xD4C DUP2 PUSH2 0xD31 JUMP JUMPDEST DUP3 MSTORE POP POP JUMP JUMPDEST PUSH1 0x0 PUSH1 0x20 DUP3 ADD SWAP1 POP PUSH2 0xD67 PUSH1 0x0 DUP4 ADD DUP5 PUSH2 0xD43 JUMP JUMPDEST SWAP3 SWAP2 POP POP JUMP JUMPDEST PUSH32 0x4E487B7100000000000000000000000000000000000000000000000000000000 PUSH1 0x0 MSTORE PUSH1 0x22 PUSH1 0x4 MSTORE PUSH1 0x24 PUSH1 0x0 REVERT JUMPDEST PUSH1 0x0 PUSH1 0x2 DUP3 DIV SWAP1 POP PUSH1 0x1 DUP3 AND DUP1 PUSH2 0xDB4 JUMPI PUSH1 0x7F DUP3 AND SWAP2 POP JUMPDEST PUSH1 0x20 DUP3 LT DUP2 EQ ISZERO PUSH2 0xDC8 JUMPI PUSH2 0xDC7 PUSH2 0xD6D JUMP JUMPDEST JUMPDEST POP SWAP2 SWAP1 POP JUMP INVALID LOG2 PUSH5 0x6970667358 0x22 SLT KECCAK256 PUSH20 0x86C0796B93C09571CBA18E8B4C418C5CB2B28FBD EQ 0xF 0xAB 0xD4 0xDD PUSH8 0x55AD3E7AD864736F PUSH13 0x63430008090033000000000000 "
				},
				"gasEstimates": {
					"creation": {
						"codeDepositCost": "717600",
						"executionCost": "753",
						"totalCost": "718353"
					},
					"external": {
						"": "219",
						"assignedSupply(address)": "2881",
						"assignedTicker(address)": "infinite",
						"bytes32ToString(bytes32)": "1003",
						"ex10_allInOne()": "277",
						"ex1_getTickerAndSupply()": "255",
						"ex2_testErc20TickerAndSupply()": "210",
						"ex3_testGetToken()": "189",
						"ex4_testBuyToken()": "211",
						"ex5_testDenyListing()": "232",
						"ex6_testAllowListing()": "190",
						"ex7_testDenyListing()": "167",
						"ex8Tier1AmountBought(address)": "2859",
						"ex8_testTier1Listing()": "212",
						"ex9_testTier2Listing()": "233",
						"exerciceProgression(address,uint256)": "3199",
						"hasBeenPaired(address)": "2977",
						"nextValueStoreRank()": "2452",
						"readSupply(address)": "776",
						"readTicker(address)": "985",
						"setRandomTickersAndSupply(uint256[20],string[20])": "infinite",
						"studentErc20(address)": "infinite",
						"submitExercice(address)": "588",
						"teachers(address)": "2955"
					},
					"internal": {
						"_compareStrings(string memory,string memory)": "infinite",
						"_testBuyToken()": "infinite"
					}
				},
				"methodIdentifiers": {
					"assignedSupply(address)": "7db60caf",
					"assignedTicker(address)": "00a3491a",
					"bytes32ToString(bytes32)": "9201de55",
					"ex10_allInOne()": "df70111f",
					"ex1_getTickerAndSupply()": "98f02097",
					"ex2_testErc20TickerAndSupply()": "e8b4cb56",
					"ex3_testGetToken()": "3bc40956",
					"ex4_testBuyToken()": "b32b559f",
					"ex5_testDenyListing()": "ec65b16e",
					"ex6_testAllowListing()": "0af78edc",
					"ex7_testDenyListing()": "a6c611d9",
					"ex8Tier1AmountBought(address)": "afda5dc5",
					"ex8_testTier1Listing()": "16f4b99f",
					"ex9_testTier2Listing()": "ccd64d7d",
					"exerciceProgression(address,uint256)": "2e64c500",
					"hasBeenPaired(address)": "f4fdbb88",
					"nextValueStoreRank()": "39119dce",
					"readSupply(address)": "9f91f516",
					"readTicker(address)": "e22b5dcf",
					"setRandomTickersAndSupply(uint256[20],string[20])": "d1a2e76e",
					"studentErc20(address)": "e22ebfd6",
					"submitExercice(address)": "2236d353",
					"teachers(address)": "f0a47f78"
				}
			},
			"storageLayout": {
				"storage": [
					{
						"astId": 864,
						"contract": "contracts/Evaluator.sol:Evaluator",
						"label": "teachers",
						"offset": 0,
						"slot": "0",
						"type": "t_mapping(t_address,t_bool)"
					},
					{
						"astId": 866,
						"contract": "contracts/Evaluator.sol:Evaluator",
						"label": "nextValueStoreRank",
						"offset": 0,
						"slot": "1",
						"type": "t_uint256"
					},
					{
						"astId": 870,
						"contract": "contracts/Evaluator.sol:Evaluator",
						"label": "assignedTicker",
						"offset": 0,
						"slot": "2",
						"type": "t_mapping(t_address,t_string_storage)"
					},
					{
						"astId": 874,
						"contract": "contracts/Evaluator.sol:Evaluator",
						"label": "assignedSupply",
						"offset": 0,
						"slot": "3",
						"type": "t_mapping(t_address,t_uint256)"
					},
					{
						"astId": 880,
						"contract": "contracts/Evaluator.sol:Evaluator",
						"label": "exerciceProgression",
						"offset": 0,
						"slot": "4",
						"type": "t_mapping(t_address,t_mapping(t_uint256,t_bool))"
					},
					{
						"astId": 885,
						"contract": "contracts/Evaluator.sol:Evaluator",
						"label": "studentErc20",
						"offset": 0,
						"slot": "5",
						"type": "t_mapping(t_address,t_contract(IExerciceSolution)860)"
					},
					{
						"astId": 889,
						"contract": "contracts/Evaluator.sol:Evaluator",
						"label": "ex8Tier1AmountBought",
						"offset": 0,
						"slot": "6",
						"type": "t_mapping(t_address,t_uint256)"
					},
					{
						"astId": 893,
						"contract": "contracts/Evaluator.sol:Evaluator",
						"label": "hasBeenPaired",
						"offset": 0,
						"slot": "7",
						"type": "t_mapping(t_address,t_bool)"
					}
				],
				"types": {
					"t_address": {
						"encoding": "inplace",
						"label": "address",
						"numberOfBytes": "20"
					},
					"t_bool": {
						"encoding": "inplace",
						"label": "bool",
						"numberOfBytes": "1"
					},
					"t_contract(IExerciceSolution)860": {
						"encoding": "inplace",
						"label": "contract IExerciceSolution",
						"numberOfBytes": "20"
					},
					"t_mapping(t_address,t_bool)": {
						"encoding": "mapping",
						"key": "t_address",
						"label": "mapping(address => bool)",
						"numberOfBytes": "32",
						"value": "t_bool"
					},
					"t_mapping(t_address,t_contract(IExerciceSolution)860)": {
						"encoding": "mapping",
						"key": "t_address",
						"label": "mapping(address => contract IExerciceSolution)",
						"numberOfBytes": "32",
						"value": "t_contract(IExerciceSolution)860"
					},
					"t_mapping(t_address,t_mapping(t_uint256,t_bool))": {
						"encoding": "mapping",
						"key": "t_address",
						"label": "mapping(address => mapping(uint256 => bool))",
						"numberOfBytes": "32",
						"value": "t_mapping(t_uint256,t_bool)"
					},
					"t_mapping(t_address,t_string_storage)": {
						"encoding": "mapping",
						"key": "t_address",
						"label": "mapping(address => string)",
						"numberOfBytes": "32",
						"value": "t_string_storage"
					},
					"t_mapping(t_address,t_uint256)": {
						"encoding": "mapping",
						"key": "t_address",
						"label": "mapping(address => uint256)",
						"numberOfBytes": "32",
						"value": "t_uint256"
					},
					"t_mapping(t_uint256,t_bool)": {
						"encoding": "mapping",
						"key": "t_uint256",
						"label": "mapping(uint256 => bool)",
						"numberOfBytes": "32",
						"value": "t_bool"
					},
					"t_string_storage": {
						"encoding": "bytes",
						"label": "string",
						"numberOfBytes": "32"
					},
					"t_uint256": {
						"encoding": "inplace",
						"label": "uint256",
						"numberOfBytes": "32"
					}
				}
			},
			"userdoc": {
				"kind": "user",
				"methods": {},
				"version": 1
			}
		}
	}
}